:100000000C94CA020C9437240C9402030C9402033F
:100010000C9402030C9402030C9402030C9402034C
:100020000C9402030C9402030C94592B0C942D2C69
:100030000C9460260C9402030C9402030C940203AB
:100040000C9402030C9402030C9402030C9402031C
:100050000C9402030C9403270C9402030C940203E7
:100060000C9402030C9402030C9402030C940203FC
:100070000C9402030C9402030C9402030C940203EC
:100080000C9402030C9402030C9402030C940203DC
:100090000C9402030C9402030C9402030C940203CC
:1000A0000C9402030C9402030C94020335001E000E
:1000B0001F002000210022002B0014001A0008005D
:1000C00015001700292104001600070009000A0086
:1000D000E1001D001B0006001900050000000000E3
:1000E000E30021522C00E2002A0027002600250010
:1000F000240023002A00130012000C0018001C002A
:10010000340033000F000E000D000B00E500380036
:10011000370036001000110000000000E7002252F6
:100120002800E60020780100010001000100BE0067
:10013000007C0100010001000100010001003A0003
:100140003B003C003D003E0001003F0040004100FC
:100150004200430000000000010001000100010016
:1001600001000100010001000100BD00AD00AE0072
:100170000100010001000100AB00AC004F00520083
:1001800051005000A900AA00010001000100010077
:100190000000000001000100010001000100010059
:1001A00001000100010001000100010001002F0217
:1001B00030020100010001000100260227020100B7
:1001C0000100010001002F003000010000000000CC
:1001D0000100010001000100010001000100010017
:1001E0000100010001000100010001000100010007
:1001F0000100010031002E002D000100010001006E
:1002000001000100010001000000000001000100E8
:1002100001000100010001000100010001000100D6
:1002200001000100010001000100010001000100C6
:1002300001000100010001000100010001000100B6
:1002400001000100000000000100010001000100A8
:100250000100010001000100010001000100010096
:100260000100010001000100010001000100010086
:100270000100010001000100010001000100010076
:100280000000000001000100010001001E0F050038
:10029000047F3F1F643214643214783C1E1E140A1B
:1002A000052223252628292A2C2D2F3032333536B6
:1002B000383A3B3D3E4042434547494A4C4E5051F7
:1002C000535557595A5C5E6062646668696B6D6F1E
:1002D00071737577797B7D7F81838587898A8C8E21
:1002E00090929496989A9C9E9FA1A3A5A7A8AAAC29
:1002F000AEAFB1B3B4B6B8B9BBBCBEBFC1C2C3C563
:10030000C6C7C9CACBCCCDCED0D1D2D2D3D4D5D604
:10031000D7D7D8D9D9DADADBDBDBDCDCDCDCDCDD37
:10032000DDDDDDDCDCDCDCDCDBDBDBDADAD9D9D81B
:10033000D7D7D6D5D4D3D2D2D1D0CECDCCCBCAC9B3
:10034000C7C6C5C3C2C1BFBEBCBBB9B8B6B4B3B1E2
:10035000AFAEACAAA8A7A5A3A19F9E9C9A9896947D
:1003600092908E8C8A89878583817F7D7B79777552
:1003700073716F6D6B6968666462605E5C5A595731
:10038000555351504E4C4A4947454342403E3D3BF0
:100390003A3836353332302F2D2C2A29282625237A
:1003A00022FFAA7F55400001010101010101010165
:1003B0000202020202020202020303030303030316
:1003C00003040404040404040505050505060606E3
:1003D0000606070707070708080808090909090AA0
:1003E0000A0A0B0B0B0C0C0C0D0D0D0E0E0E0F0F45
:1003F0000F101011111112121313141415151616D3
:100400001717181819191A1A1B1B1C1D1D1E1E1F41
:100410002020212222232424252626272829292A90
:100420002B2C2D2D2E2F30313232333435363738B8
:10043000393A3B3C3D3E3F404142434445464748B4
:10044000494A4C4D4E4F50515354555658595A5B8A
:100450005D5E5F616264656668696B6C6D6F70722A
:10046000737577787A7B7D7E8082838587888A8C96
:100470008E8F91939596989A9C9EA0A2A3A5A7A9CA
:10048000ABADAFB1B3B5B7BABCBEC0C2C4C6C9CBC1
:10049000CDCFD1D4D6D8DBDDDFE2E4E7E9EBEEF077
:1004A000F3F5F8FAFDFF18034900720069007300C4
:1004B00020005200650076002E002000350000006C
:1004C0000E034B0065006500620069006F000000CC
:1004D0000403090409023B00020100A0FA09040018
:1004E0000001030101000921110100012240000760
:1004F000058103080001090401000103000000094F
:10050000211101000122320007058203200001129F
:100510000100020000000810CB5652000501020045
:100520000105010980A101850319012AB700150100
:1005300026B700950175108100C0050C0901A101C5
:10054000850419012AA002150126A0029501751043
:100550008100C005010906A101050719E029E71579
:100560000025019508750181029501750881010535
:1005700007190029FF150026FF0095067508810060
:100580000508190129059505750191029501750365
:100590009101C00011241FBECFEFDAE0DEBFCDBF56
:1005A00004B603FE18C08091B1039091B203A091EC
:1005B000B303B091B4038730904BA740B04B59F4CC
:1005C0001092B1031092B2031092B3031092B403CD
:1005D000E0E0F8E3099512E0A0E0B1E0E8E0F0E641
:1005E00002C005900D92A232B107D9F723E0A2E232
:1005F000B2E001C01D92A13BB207E1F70E940C16C8
:100600000C94AE2F0C940000CF93DF93D82FC62FFD
:100610000E945F21882341F0D1110AC089EAC111EB
:1006200001C08AEA0E94170580E0DF91CF9108950A
:10063000D130D1F78EE4C111F5CF8BE4F3CF843004
:10064000B8F46A30A8F4463098F450E096E0699F18
:10065000400D511D1124FA019CE3899FE00DF11D0D
:100660001124EE0FFF1FE455FF4F859194910895DB
:1006700081E090E008950E941F03089581E00895AD
:1006800081E008950E944003089508950E94450363
:100690000895A5E0B0E0EFE4F3E00C94A02E4983C8
:1006A0005A833091290289819A81311119C06623B8
:1006B00099F0222389F00E94D608182F682F89818B
:1006C0009A810E94B20869817A81812F0E94C80FA5
:1006D0002596E3E00C94BC2E0E94C408182FF3CF9B
:1006E0000E94D60869817A81F1CFFC01262F4081D2
:1006F00051816281738184810E944903089581E060
:100700000895CF93DF93EC0160E00E947503BE0172
:100710000E944603DF91CF91089508950E948107BA
:100720000E948D032FEF84E39CE021508040904095
:10073000E1F700C0000008950E948E030E94272761
:1007400008950E948E030E944B2708950F931F93D4
:10075000CF93DF938C0161E00E947503EC01B80137
:100760000E944203811106C080E0DF91CF911F916A
:100770000F910895B801CE010E944B1F8823A1F369
:10078000B801CE010E945523882371F3B801CE0130
:100790000E947C20882341F3B801CE010E94C72229
:1007A000882311F3B801CE010E94E71D8823E1F2EE
:1007B000F8018281882361F0C330FCE7DF07E9F0AC
:1007C00058F4C115ECE7DE07A9F0C130DC47B9F0F9
:1007D000C8010E943E03C9CFCB358CE7D807A9F0EA
:1007E000CC35ECE7DE0771F0CA35DC4789F70E94AB
:1007F000070DEECF0E949C03B7CF0E940F0D0E9401
:10080000A103B2CF0E94FD0CE3CF0E940B0DE0CFFD
:100810000E943D2680E00E94801F0E9434040895BB
:100820000E94771E0E9438040E944226089508956F
:1008300081E008950895CF93DF93D82F0E94180484
:10084000C82F882319F08D2F0E941A048C2FDF9156
:10085000CF9108950895CF93C82F0E9417048C2F2D
:100860000E941B04CF91089580E00E942B040895FC
:100870000E945D250E942B040895CF930E945D2560
:10088000C82F809124028C1779F0C09324020E9413
:10089000CC266093250270932602809327029093C2
:1008A00028028C2F0E942B04CF910895ABE0B0E07A
:1008B000ECE5F4E00C94A12E4F83588769877A8782
:1008C0008B8761110E94480C1E821D8285E0FE010B
:1008D0003796DE01119601900D928A95E1F78C8191
:1008E0009D81892B61F449815A816B817C818D8145
:1008F0009E810E94700B2B96E2E00C94BD2E8981A4
:100900009A8189238F3F79F3CE0101960E947F035C
:100910008111E9CFF0CFFC01808191810E9408090B
:100920000895CF93C82F8823B9F08CEF8C0F813AAC
:10093000A8F46C2F80910401909105010E94D825A4
:10094000882329F08C2F0E94080C0E94690C8C2FA0
:100950000E94000C0E94690CCF91089580E28C0FD8
:10096000883048F4C77081E001C0880FCA95EAF763
:100970000E942B0CEFCFEBE5EC0FE33040F4F0E0FE
:10098000E755FE4F808190E00E947C25E5CFC85A54
:10099000CB3110F7EC2FF0E0EE0FFF1FED58FE4FBC
:1009A000808191810E94A125D7CF882339F19CEFC6
:1009B000980F913A28F40E94080C0E94690C08953F
:1009C00090E2980F983050F4877091E001C0990F31
:1009D0008A95EAF7892F0E94310CEFCF9BE5980F9B
:1009E000933028F490E080E00E947C250895885A96
:1009F0008B3120F490E080E00E94A12508951F93A0
:100A0000CF93DF93182FEB010E949104209739F4C4
:100A1000812F0E94D504DF91CF911F9108958FE916
:100A20009FE00197F1F700C000002197EFCF70E041
:100A300060E0893311F460E570E00E94FF040895DE
:100A4000882321F00E942B0C0E94690C08958823B2
:100A500021F00E94310C0E94690C0895B0E0A0E0E2
:100A6000E4E3F5E00C949A2E6C01D62FC72FFC011D
:100A70001281058102950F700E94210CE82E8823B7
:100A8000E9F0E12E1123D1F08C2F807F803451F0DA
:100A900080E28D0F8830F8F0011104C08C2F807E29
:100AA0008032C9F080915F0382FF15C082E00E940E
:100AB000CC0C0E94210C91E0E82EE926BC2EB294C9
:100AC0009FE0B922FBE0FB15B8F1EB2DF0E0E0551B
:100AD000F04D0C945A2EE12CF1CF0C2F0F70C07FEB
:100AE00011F00295007F112399F0002359F080E264
:100AF0008D0F883010F0D11107C0802F0E942B0C71
:100B00000E94690C8D2F63C0802F0E943B0CF8CF90
:100B10008D2F0E94D504002379F080E28D0F88305C
:100B200010F0D11104C0802F0E94310C03C0802F1F
:100B30000E94410C0E94690C2B2D2850330B24304D
:100B4000310520F40E945D250E942B04EE2089F0DF
:100B50000E941D0C80FD0DC0F60112820E94170C30
:100B60000E941008C6010E9445070E94170C0E94AF
:100B70002008CDB7DEB7E9E00C94B62E2C2F2F70ED
:100B8000F22EC07FC03219F0F29480EFF822DD23FC
:100B900081F0D13009F449C0112309F451C0002378
:100BA00009F448C0F601858180FFACCF8F70858342
:100BB00041C080915F0382FD15C0112359F0FF20D1
:100BC00029F08F2D0E942B0C0E94690C80E00E945E
:100BD0009104B2CF80E00E94D504FF2009F4ACCF8D
:100BE0008F2DA2CF112381F0011106C00E944B0C62
:100BF0008F290E942005A0CF0130C1F70E944B0C25
:100C00008F290E94520C98CF011106C00E945F0CE0
:100C10008F2D0E94270590CF013009F48DCF8F2DA5
:100C20000E9427050E945F0C87CF112329F0063010
:100C300008F082CF8F2DDDCF053008F07DCFE8CFD3
:100C4000002331F3D93349F4FFEF27EE33E0F150BD
:100C500020403040E1F700C000008D2F0E94D504F5
:100C60006BCF8C2F86958695837069F0813009F063
:100C700063CF8D2F9C2F9370111102C080E090E004
:100C80000E94A12559CF8D2F9C2F9370111102C066
:100C900080E090E00E947C254FCF8C2F8370A1F5DF
:100CA00011114ACF4D2F429546954770440F440F7E
:100CB0002D2F2F7030E0042E02C0220F331F0A9414
:100CC000E2F790E080E0D4FF09C08FE090E002C03E
:100CD000880F991F4A95E2F780959095C695C6951D
:100CE000C370822B932BC23049F058F4C13019F0F5
:100CF0000E94E00721CF0E94D7071ECF0E94E9077C
:100D00001BCF0E94D40718CF8695112311F08C2F8A
:100D10008170882309F410CF4D2F42954695477076
:100D2000440F440F2D2F2F7030E0042E02C0220FED
:100D3000331F0A94E2F790E080E0D4FF09C08FE00F
:100D400090E002C0880F991F4A95E2F78095909530
:100D5000C695C695C370822B932BC23049F058F4C8
:100D6000C13019F00E944B08E7CE0E944208E4CE41
:100D70000E945408E1CE0E94F807DECECF70112306
:100D800029F08C2F0E9410088D2F33CF8D2F0E94B9
:100D900027058C2F0E942008CFCED23F41F160F46E
:100DA000D03FB9F0D13F81F0112309F446C00111C1
:100DB000A9CE8C2F8F711FC0D33F01F1D43FA1F773
:100DC00080915F0382FD24C08C2F8F71112311F35A
:100DD00012C0112341F0053008F0AECE8C2F8F7178
:100DE0000E943208A9CE063008F0A6CEF7CF8C2F8D
:100DF0008F711111CFCF0E9410089ECE112329F0C0
:100E00008C2F8F710E94040897CE0E94FF0794CE0A
:100E1000112349F0CF718C2F0E94100863E08C2FB2
:100E20000E94AE0C89CE81E00E94CC0C023008F406
:100E300083CE82E00E94CC0C7FCE002359F0D933C0
:100E400009F00BCF8FEF97EEE3E081509040E04048
:100E5000E1F701CF8C2F8F719DCF0F931F93CF930D
:100E6000DF93EC01688179818A810E9413098C01EA
:100E70000E945D080E94D307B801CE010E942E0592
:100E8000DF91CF911F910F910895CF93DF93EC01E4
:100E90008B819C81892B29F08881998189238F3FBF
:100EA00051F4DF91CF910895CE010E942D07CE011C
:100EB0000E948103F6CFCE010E94A6038111F4CFD8
:100EC0000E94210C882369F38A81882351F3809141
:100ED0005F0382FFE6CF82E00E94CC0CE2CF90E07D
:100EE00080E00E947C2590E080E00E94A1250E9485
:100EF000480C0E94690C08950E94100C0E946F0714
:100F000008950E94380C0E947C07089592959F7066
:100F1000963091F058F4925F9F70923058F4803F71
:100F200019F030F4883E30F481E008959A5FF4CFF0
:100F3000843FD1F380E00895883EB0F3813FD1F73C
:100F4000F3CFFC0183819481892B29F080819181E9
:100F500089238F3F11F480E00895808191810E9460
:100F600008090E9486070895A5E0B0E0EAEBF7E0E3
:100F70000C94A12E2596E2E00C94BD2EA6E0B0E0E4
:100F8000E4ECF7E00C94A12E2696E2E00C94BD2E42
:100F900008950E94C80708950E94C90790934D02C2
:100FA00080934C02089508950E94CC0708952091E3
:100FB0004C0230914D02822B932B0E94CC07089556
:100FC00020914C0230914D02822393230E94CC0742
:100FD000089520914C0230914D02822793270E9460
:100FE000CC0708950E94C80708950E94F20708954B
:100FF0000E94F50790934B0280934A02089590E077
:1010000080E00E94F807089521E030E0A90102C0C5
:10101000440F551F8A95E2F7CA010E94F807089508
:1010200021E030E002C0220F331F8A95E2F7809161
:101030004A0290914B02822B932B0E94F80708954D
:1010400021E030E002C0220F331F8A95E2F720959D
:10105000309580914A0290914B02822393230E9403
:10106000F807089521E030E002C0220F331F8A956F
:10107000E2F780914A0290914B02822793270E94C7
:10108000F807089520914A0230914B02822B932B4E
:101090000E94F807089520914A0230914B02822362
:1010A00093230E94F807089520914A0230914B0241
:1010B000822793270E94F80708950895262F277006
:1010C00091E001C0990F2A95EAF723E0769567959C
:1010D0002A95E1F7660F771F660F771FFA01E60F73
:1010E000F71F50E040E0682F70E08191DF01119719
:1010F0009B01042E02C0369527950A94E2F72170D1
:1011000021952827292328272C934F5F5F4F4430B0
:10111000510559F70895A82FA77023E09695879554
:101120002A95E1F7880F991F880F991FFB01E80F97
:10113000F91F50E040E080E0219130E00A2E02C02B
:10114000369527950A94E2F721703327042E01C0C3
:10115000220F0A94EAF7822B4F5F5F4F443051050C
:1011600059F70895262F9A3070F4863060F4682F6E
:1011700070E086E0989F600D711D11244AE252E0F4
:10118000822F0E945E080895292F9A3068F48630D5
:1011900058F490E06AE272E036E0239F800D911DE2
:1011A00011240E948B08089580E00895B0E0A0E02B
:1011B000ECEDF8E00C949A2E7C0100914A0210911B
:1011C0004B0280914C0290914D02082B192BCFE0DD
:1011D000D0E0CC24C394D12CBC2EC6010C2E02C06E
:1011E000880F991F0A94E2F780239123892B49F4F1
:1011F000219790F7B12C8B2DCDB7DEB7E9E00C9499
:10120000B62EB7018C2F0E94D40F019789F3F3CF2C
:10121000CF93DF93EC010E94D608BE010E94D40F49
:10122000DF91CF9108951F93CF93DF93EB019091BE
:101230002902992339F0CB010E940809DF91CF914F
:101240001F910895882369F0CB010E94D608182FBA
:10125000682FCE010E94B208BE01812F0E94D40FD8
:10126000EDCFCB010E94C408182FF6CF1F93CF9368
:10127000DF93C0914E0216E080914F028C1304C0A0
:10128000DF91CF911F910895D0E01C9FF0011D9F29
:10129000F00D1124E05BFD4F40815181628173812B
:1012A000848195810E94BE072196C770E5CF409149
:1012B000800250918102609182027091830280913C
:1012C0008402909185020E94BE07089520914E02EB
:1012D00090914F0256E0291302C080E0089530E05B
:1012E000529FF001539FF00D1124E05BFD4F71817F
:1012F000761306C07081781303C07281741304C022
:101300002F5F3F4F2770E7CF81E008951F93CF9362
:10131000DF9380918502807F09F04BC0809182022B
:10132000882309F446C080914E02C0914F0240913B
:101330008002509181026091830270918402D42FC7
:10134000D52316E0C817A9F190E061157105A9F140
:10135000DF3F99F1189FF001199FF00D1124DF0173
:10136000A05BBD4F11962C911197251326C02C918F
:10137000241323C012962C91129721111EC013968C
:101380002D913C91261B370B283C3105B0F4809100
:1013900085028F70806180938502EB5AFD4F8081BA
:1013A0008F708061808380E892E00E9445070E94F0
:1013B0003609DF91CF911F91089501968770C2CFB2
:1013C000A1E1B0E0E6EEF9E00C94972E8C0185E007
:1013D000F801DE011D9601900D928A95E1F7F80162
:1013E000F28080E8A82E82E0B82E409183025091CE
:1013F00084024115510509F45AC19091800220914F
:101400008102892F82238F3F09F451C1C080D1808E
:1014100083809480E0908202B401641B750BEE20FF
:1014200009F4F6C080918502382F307F683C710541
:1014300008F0AFC031117AC0EF2C2D1116C09C11ED
:1014400014C0F11012C08F708061809385020E94D9
:101450005709C5010E94450780918502F8018583DF
:101460008E2D6196ECE00C94B32E81149104C9F199
:101470008C2D8D218F3FA9F181E08F2580FF05C044
:101480004F2D6D2D8C2D0E9466098114910459F108
:101490008C2D8D218F3F39F181E08F25F82FF17050
:1014A000BF2E80FF39C04F2D6D2D8C2D0E946609F7
:1014B000A82E811131C0CD86DE868D859E850E9445
:1014C0000809292F22952F70243078F49F7022303C
:1014D000A8F09923B9F0F8019581907F99F4EA2C4E
:1014E000BFCF80E0CBCF80E0D9CF2A5F2F702230F2
:1014F00068F0C8010E944507AB2CF1CF992311F089
:10150000882369F3805E883050F3F3CF803F38F34F
:10151000815F833070F7E3CFFF2009F4A1CF809182
:101520008502816080938502E12C9ACF2D1105C040
:101530009C1103C0FF2009F486C0C8010E94A107C6
:10154000882319F1FF2009F180918502803270F023
:10155000209180023091810238872F8319869B86E3
:101560008A868C87CE0107960E94450786E0F8019F
:10157000A0E8B2E001900D928A95E1F70E948609F9
:101580000E945709EE24E3946BCFC8010E944507DF
:10159000F9CF311114C0782D998A888AA6016F2D50
:1015A00089890E94B40780E892E00E94450786E09E
:1015B000F50111928A95E9F70E945709B5CF2D11CF
:1015C0000EC09C110CC0F1100AC08583C8010E9496
:1015D000450786E0F50111928A95E9F741CFC801E8
:1015E0000E94A107882389F2FF2079F28091850269
:1015F000803208F4BBCF20918002309181023A837F
:1016000029831B829D828C828E83CE010196ACCF72
:10161000683C710508F03DC0EF2CFF2009F4B5CF00
:101620002D1129C09C1127C08091850280FD1AC010
:10163000982F907FB9F08583903F31F0982F907F5D
:10164000905F8F70892B8583C8010E94450786E0D3
:10165000F801A0E8B2E001900D928A95E1F70E94AE
:101660005709FECE86E0F801A0E8B2E001900D92A5
:101670008A95E1F7F5CEC8010E94A107811176CFC6
:1016800080918502816080938502C8010E94450790
:10169000E7CE782D998A888AA6016F2D89890E94C4
:1016A000B40786E0F50111928A95E9F7D8CFFF20BB
:1016B00009F46BCFC8010E94A107E82E882309F422
:1016C00064CF86E0F801A0E8B2E001900D928A951F
:1016D000E1F780E892E00E948B040E948609BFCF68
:1016E000ACE0B0E0E6E7FBE00C94A02E4F83588717
:1016F00069877A878B879C87CE0107960E94E009CD
:101700008823B1F08A859B85892B39F04F815885D4
:10171000842F85238F3F09F06CC016E080914E0224
:1017200090914F02891343C02C96E3E00C94BC2E99
:1017300086E0FE013796DE01119601900D928A95A2
:10174000E1F78A859B85892B41F38F8198858923D1
:101750008F3F19F320914F0230E0C9010196877045
:10176000992740914E024817190671F40E9481078B
:1017700010924F0210924E0286E0E0E8F2E0DF01A4
:101780001D928A95E9F7C9CF96E0929FD001939F69
:10179000B00D1124A05BBD4FFE01319601900D925A
:1017A0009A95E1F780934F020E943609B6CF819F48
:1017B000C0011124805B9D4F0E94E009882309F439
:1017C000B3CFE0914E021E9FF0011124E05BFD4F6C
:1017D0004081518162817381848195810E94BE071D
:1017E00080914E0290E001968770992780934E0277
:1017F00095CF69857A858B859C850E94BE078DCFA4
:10180000682F80910401909105010E940E26089591
:10181000682F80910401909105010E94112608957E
:1018200080910401909105010E94142608958091F1
:101830008E02859585958595089580918E02877095
:10184000089590918E02977081E009F480E00895E8
:1018500080919902089590919902892B8093990221
:1018600008958095909199029823909399020895F4
:1018700010929902089590919802892B8093980272
:1018800008958095909198029823909398020895D6
:1018900010929802089580918F02089508950E94F1
:1018A0004E0C089590915F0392FF08C090918F02B3
:1018B000981721F080938F020E944F0C0895809119
:1018C0008F02882329F010928F0280E00E944F0C33
:1018D0000895CF93DF93E0910401F0910501809189
:1018E00099028083E0910401F0910501808190913B
:1018F0009802892B808390918F02992381F0E09147
:101900000401F09105018081892B8083809104017D
:10191000909105010E94C62581110E945F0CC09123
:101920000401D091050148E050E066E872E0CE0184
:101930000E94312F892B59F088E0FE01A6E8B2E021
:1019400001900D928A95E1F7CE010E947125DF91F9
:10195000CF91089508950E94AA0C089590915F0375
:1019600092FF11C098E0899F90011124622B60932F
:101970008E020E94100880918E028595859585952E
:101980000E94AB0C08950E941008089510928E02D8
:1019900080E00E94AB0C089590918E02809589237F
:1019A00080938E02282F277091F4282F082E000C88
:1019B000330B9217130659F090915F0392FF07C003
:1019C0008595859585950E9420080E94C60C0895EE
:1019D00090915F0392FB222720F9281769F080FB82
:1019E00092F990935F0380915E0390915F030E9450
:1019F000300D82E00E94CC0C089580915F0382FB41
:101A0000882780F991E089270E94E80C089581E0F9
:101A10000E94E80C089580E00E94E80C08956FEFA2
:101A20007FEF90E080E00E94792F089590E080E0C1
:101A30000E94552F21E0873E9E4F09F020E0822F23
:101A4000089582E090E00E94472F089583E090E09F
:101A50000E94472F089584E090E00E94552F08953A
:101A6000BC0184E090E00E94792F0895AB01BC0195
:101A70008FE090E00E946D2F0895AB01BC0183E1DF
:101A800090E00E946D2F089560E070E0CB010E940D
:101A90003D0D089560E070E0CB010E94360D0E947C
:101AA000440D089567EE7EEF90E080E00E94792F6C
:101AB00060E082E090E00E945B2F60E083E090E0D5
:101AC0000E945B2F10924D0210924C0260E074E174
:101AD00084E090E00E94792F60E086E090E00E9430
:101AE0005B2F6FEF87E090E00E945B2F40E050E0BB
:101AF000BA0188E090E00E946D2F60E08DE090E0F8
:101B00000E945B2F40E050E0BA0188E190E00E9423
:101B10006D2F60E087E190E00E945B2F40E050E095
:101B2000BA018CE190E00E946D2F70E060E080E2ED
:101B300090E00E94792F40E050E0BA0188E190E007
:101B40000E946D2F0E944A0D08950E94520D089523
:101B5000682F8EE090E00E945B2F0895A5E0B0E032
:101B6000E4EBFDE00C949F2E0E94C0268C01809136
:101B70009A0290919B0280179107A1F08FEF8983C1
:101B80008A831B820E94C0268160782F9D838C836C
:101B900049815A816B818D810E94560410939B026A
:101BA00000939A022596E4E00C94BB2E0E94CC266A
:101BB0006093AE027093AF028093B0029093B10233
:101BC0006093AA027093AB028093AC029093AD0233
:101BD00008950E94CC266093AE027093AF0280936A
:101BE000B0029093B1026093A6027093A702809313
:101BF000A8029093A9020895089508950E94FD0DEA
:101C0000089508950E94010E089581E0089589E0E5
:101C100091E10E9453250E94FC0D0E94FE0D089543
:101C20000E9411130895089508950E94130E0E94B2
:101C3000140E08950E940C110E942A040E9427206D
:101C400008950E94B7260E94BE100E9429130E9488
:101C500064210E9436120E941A0E0E9464200E9483
:101C6000771E0E94921C0E9445130E94020E089546
:101C7000A5E0B0E0EEE3FEE00C94992E0E94050E84
:101C8000811113C00E94AE0D0E9411130E94FF1C0F
:101C90000E9426200E94E82181110E94E90D0E94E5
:101CA0003D042596EAE00C94B52E0E9490128CE932
:101CB000A82E82E0B82E750110E0F70101917F0196
:101CC000812F0E9432111F5F1A3009F440C008179B
:101CD000A1F38091B20281FD0E9438110E94100E82
:101CE000C82E10E0812F0E943211082FF50181913A
:101CF0005F01081731F1F12CEE24E394D02ED826A1
:101D00008D2D8E21B1F0CC20A1F0F9821A8391E0C3
:101D1000802F8E2109F490E09B830E94C026816071
:101D2000782F9D838C8349815A816B818D810E949C
:101D30005604F394EE0CF6E0FF12E2CFF501319772
:101D400000831F5F1A3071F60E94D60D9DCF0813D5
:101D5000C0CF98CF1F93CF93DF930E94D90FEC0190
:101D6000C11580E5D807F0F5C11580E4D80708F063
:101D70009CC0C03ED10520F5CD3CD10508F082C005
:101D8000C83AD10578F4C53AD10508F073C0C1301E
:101D9000D10519F1209709F1C430D105F0F4D0E054
:101DA000C0E01BC0C33CD105D0F7C85AD0E0CC0F6F
:101DB000DD1FC455DE4F0990D881C02DD4640DC0FD
:101DC000C11580E2D80708F0D1C0C11581E0D8075D
:101DD00008F05AC0C83ED10510F7CE01DF91CF916F
:101DE0001F910895C03682E5D80718F5C03482E502
:101DF000D80708F06BC0C03282E5D80708F05FC092
:101E0000C11582E5D80708F497C02C2F2695269592
:101E100080E2289F900111248C2F8370C1E0D0E0D4
:101E200002C0CC0FDD1F8A95E2F7C22BD32BDD68F1
:101E3000D4CFC03A82E5D80760F4C03882E5D8072D
:101E400008F459C0CF71D0E0DC2FCC27C46FD06A22
:101E5000C4CFC03C82E5D80708F462C0C03E82E52A
:101E6000D80708F09CCFDC2FCC27CC27DF71C06FC0
:101E7000D06AB3CFC55AD0E0CE51DE4FC881D0E092
:101E8000D064ABCFD065A9CF8D2F0E947B10182FC7
:101E9000CE0199270E94D90FC12FD0E0DC2FCC278B
:101EA000CC27DF71C82BD92B98CFCE0199270E9460
:101EB000D90FCC27DF70C82BD92BD06A8ECFCF712A
:101EC000D0E0DC2FCC27C16FD06A87CF2C2F26958E
:101ED0002695277080E2289F900111248C2F837013
:101EE000C1E0D0E002C0CC0FDD1F8A95E2F7C22B23
:101EF000D32BDC6872CF2C2F26952695277080E295
:101F0000289F900111248C2F8370C1E0D0E002C083
:101F1000CC0FDD1F8A95E2F7C22BD32BDA685DCF99
:101F20008C2F8F710E947B10C82FD0E0DC2FCC2724
:101F3000CC27DF71D06251CF8C2F8F710E947B1024
:101F400055E0D695C7955A95E1F7CF70D0E0DC2FD4
:101F5000CC27282F30E084FF05C044E0220F331F38
:101F60004A95E1F7C22BD32BD06937CF8D2F8F71D4
:101F70000E947B10182FCE0199270E94D90FC12FE4
:101F8000D0E0DC2FCC27CC27DF71C82BD92BD2CFC8
:101F9000462F7A3030F4663020F4672F0E943B03DE
:101FA000089590E080E008950E94C80F0E94AA0E54
:101FB000089582389105B9F1B0F48133910509F49F
:101FC0007DC048F48932910509F46DC08A329105CB
:101FD00009F47BC008958533910509F45FC0893306
:101FE000910509F10895833E9105D9F138F4803EB9
:101FF000910529F1823E910579F10895863E91057A
:10200000D9F1873E910509F43EC0843E910541F522
:1020100020915F0321FF24C080915E0384FD19C0DD
:1020200087EE90E0089520915E03237009F05AC076
:1020300020915F0323FF14C089E290E0089520916E
:102040005E0320FD38C030915F0330FF09C024FFDC
:1020500043C090E080E0089520915E0322FDF7CF19
:10206000089520915E0322FD3AC030915F0330FD58
:1020700039C024FFF5CFEDCF20915E0323FFF0CFD1
:1020800024FDE7CFCDCF20915E0323FD2EC03091FC
:102090005F0331FFEECF84EE90E0089520915E0360
:1020A00025FFDECFC9CF20915E0325FD21C0209101
:1020B0005F0323FFD5CF89E390E0D2CF20915E0369
:1020C00026FFCECF8AE290E0089520915E0326FF9E
:1020D000C7CF81E390E0089583EE90E0089582EE0B
:1020E00090E0089580EE90E0089586EE90E00895E7
:1020F00085E390E0089590915E0392FF06C0282F3B
:1021000028712830F9F4877F846093FF06C0282F58
:1021100028712831F1F4877E846120915F0320FFCC
:1021200006C0382F38713830D9F4877F816021FF9D
:1021300006C0282F28712831D1F4877E816194FD53
:10214000877E0895282F24712430F9F68B7F8860CC
:10215000DCCF282F2471243101F78B7E8861DDCFFD
:10216000382F3171313019F78E7F8860E0CF282FFA
:102170002171213121F78E7E8861E1CF10925A03BF
:1021800010925B0310925C0310925D030895CF924E
:10219000DF92EF92FF926B017C010E94111381117B
:1021A0000EC00E94CC26C61AD70AE80AF90AC092C5
:1021B0005A03D0925B03E0925C03F0925D03FF90C0
:1021C000EF90DF90CF9008950F931F930E9411130B
:1021D000882329F00E94CC261F910F9108950E9418
:1021E000CC2600915A0310915B0320915C0330913F
:1021F0005D03600F711F821F931FEECF0E941113AA
:10220000882319F00E94C02608950E94E410CB0193
:10221000089580E0089508950E94160D811102C06E
:102220000E94A50D0E94210D8093B2020E942B0DE9
:1022300090935F0380935E030E940B110E94260D12
:1022400090E00E94D40780914A0290914B020E9434
:10225000F507089508950E942A11089508950E948F
:102260002E110895E82FF0E0E559FC4F8081089584
:10227000089580EA8A95F1F7089500C008950E94B4
:102280003911089508950E9442110895A5E0B0E023
:10229000ECE4F1E10C949D2E0E941113F82E609154
:1022A0007503882309F440C085E0E82E8E010F5F96
:1022B0001F4FF8018E2D11928A95E9F7862F90E035
:1022C000B80185599C4F0E9453138823B9F080911F
:1022D000600390E045E050E0B80185599C4F0E94B2
:1022E000312F21E02093B302892B91F4F12C0E942D
:1022F0002F118F2D2596E6E00C94B92E8091B30214
:102300008823A1F3F8011192EA94E9F71092B3023D
:10231000A0916003B0E0A559BC4F85E0F8010190A1
:102320000D928A95E1F7E3CF70E065597C4F80917B
:10233000600390E085599C4F0E94DA130E9443117C
:10234000D8CFF894E82FE295EF70F0E031A1282F74
:102350002F7081E090E001C0880F2A95EAF7982F4E
:102360009095932391A392A1892B82A378940895A9
:102370000F931F93CF93DF93CCE0D1E089918F3FF0
:1023800011F00E94A11181E0C131D807B9F7C6E070
:10239000D1E00CE011E089918F3F11F00E94A11172
:1023A0000C171D07C1F7DF91CF911F910F91089571
:1023B000B0E0A0E0EEEDF1E10C949B2EEC01D62E06
:1023C000062F10E0C801845F9E4F7C01FC018081D4
:1023D0008F3F09F444C0F894E82FE295EF70F0E0E5
:1023E00091A18F7021E030E001C0220F8A95EAF7B9
:1023F000892F822B81A382A12095282322A3789460
:102400000E943D11E6E0F1E031E0C12C21912F3F27
:1024100059F1A22FA295AF70B0E090968C9190E008
:102420002F7002C0959587952A95E2F780FD1CC014
:10243000832FC82A330F81E0EC30F80739F7F70112
:1024400080818F3F11F00E94A11161E0C11001C095
:1024500060E08D2D0E943F11C00FD11FC882CDB703
:10246000DEB7E8E00C94B72E80E0E3CFABE0B0E05D
:10247000ECE3F2E10C94A12E8091110181112CC0AA
:1024800085E0E8E6F1E0DE01179601900D928A956D
:10249000E1F78F8180930C01888580930D018985F8
:1024A00080930E018A8580930F018B8580931001A4
:1024B00086E0EDE6F1E0DE01119601900D928A953D
:1024C000E1F7FE013196A6E0B1E0CE010796219139
:1024D0002D93E817F907D9F78091110195E0811143
:1024E00090E09093750385E0891B809360030E94C0
:1024F000B8118AE0EBE6F3E0DF01982F1D929A9580
:10250000E9F7E1E6F3E0DF011D928A95E9F785E05E
:102510000E94CE120E942B112B96E2E00C94BD2E4D
:10252000AAE0B0E0E6E9F2E10C949E2E8E010F5F86
:102530001F4F8AE0F80111928A95E9F7F12C6F2D6F
:10254000C8010E94D811F394F5E0FF12F8CF4AE0D9
:1025500050E0B80181E693E00E94312F21E000971E
:1025600009F420E0892B41F08AE0F801A1E6B3E00C
:1025700001900D928A95E1F76091750370E06559BD
:102580007C4F45E081E693E00E94CF12182F0E9415
:102590004611812B2A96E5E00C94BA2E0895CF922D
:1025A000DF92EF92FF920F931F93CF936C017B0109
:1025B000042F222349F081E08093B6020E94C026B6
:1025C0009093B5028093B402C091B602C1110AC0C3
:1025D000C0E08C2FCF911F910F91FF90EF90DF9073
:1025E000CF9008958091B4029091B5020E94D826B0
:1025F000059770F310E0A801B601C7010E94312FC2
:10260000892B41F0A801B601C7010E943E2F10920C
:10261000B602DFCFC0E0FBCF89B185FB882780F908
:1026200008958091B902811107C00E94D92D882395
:1026300051F081E08093B90281E09091B90291302C
:1026400009F080E0089582E08093B9020E94D42DC1
:10265000F3CF55985D988FE891E00197F1F700C0AE
:1026600000000E940C13809311018091110166E01B
:10267000882349F080E00E94B1160E941113811155
:102680000E948913089586E0F6CF0E9411138111EC
:1026900002C00E948C13089581E09091BA029A3092
:1026A00008F080E008950F931F93CF93DF93EC0120
:1026B0008B018091BA028A30B8F4B801CE010E9431
:1026C000D713C82F811122C08091BA028F3FB9F46D
:1026D0000E94C0269093B8028093B7028C2FDF919E
:1026E000CF911F910F9108958091B7029091B802F8
:1026F0000E94D826843F914000F7C0E0EFCF8F5F63
:102700008093BA028A3020F7C1E0E8CF1092BA0273
:10271000E5CF0E94F12308950E94F4230895B0E0CC
:10272000A0E0E5E9F3E10C949C2E7901C82F880F15
:10273000DD0B41155105A9F0FE0193E0EE0FFF1FDF
:102740009A95E1F7EE5EFE4F8181928185549D4F0F
:10275000208130E04217530708F49A01A9010E9432
:102760003E2FCE010E94DD24D82E8823D1F0011502
:102770001105B9F083E0CC0FDD1F8A95E1F7FE016A
:10278000EE5EFE4F438150E00417150708F4A801E0
:10279000CE5EDE4F6C817D8165547D4FC7010E9406
:1027A0003E2F8D2DCDB7DEB7E7E00C94B82E0E94FA
:1027B0006F1508950E94A0150895A4E0B0E0E3EE1F
:1027C000F3E10C949F2E6091E1027091E2028091FE
:1027D000E3029091E4020E94E72611E0643671055D
:1027E0008105910518F10E94E4106E5F7F4F8F4FB5
:1027F0009F4F69837A838B839C8310E000E030E0F5
:1028000020E044E050E0BE016F5F7F4F84E00E9413
:102810008F13182F882351F00E94CC266093E10279
:102820007093E2028093E3029093E402812F249656
:10283000E4E00C94BB2EB0E0A0E0E1E2F4E10C9403
:10284000992EC82F7B01D42F69015801FB016081AB
:102850007181828193810E94E7266436710581052A
:10286000910510F4DD23C9F010E000E030E020E035
:10287000A501B6018C2F0E948F13C82F882339F031
:102880000E94CC26F70160837183828393838C2F0F
:10289000CDB7DEB7EAE00C94B52EC1E0F8CFA8E0E2
:1028A000B0E0E5E5F4E10C949F2ECE0101960E9484
:1028B000C01B41E08885811101C040E008E010E0C4
:1028C0009E012F5F3F4F69EE72E086E00E941B146D
:1028D000182F81110E94BD1B812F2896E4E00C94D3
:1028E000BB2EA1E0B0E0E7E7F4E10C949F2E0E943C
:1028F000591E8823D1F00E94711E8983E091E50161
:10290000F091E60141E09485981301C040E001E0B8
:1029100010E09E012F5F3F4F65EE72E085E00E9460
:102920001B142196E4E00C94BB2E80E0E6CFA1E0DE
:10293000B0E0EDE9F4E10C94962E762E4A015901AF
:10294000680101E010E09E012F5F3F4F50E040E042
:1029500070E060E00E948F13182F882399F1F40132
:1029600060817181828193810E94E72664367105BE
:102970008105910500F18701950150E040E070E08C
:1029800060E0872D0E948F13B82EB701C6010E9408
:10299000652011E09981981310E01B2139F00E9405
:1029A000CC26F4016083718382839383812F2196E7
:1029B000EDE00C94B22EB701C6010E94652099810A
:1029C0008913D9CFA701B601C5010E943E2FEECFD2
:1029D000A1E0B0E0EEEEF4E10C949D2E0091E50153
:1029E0001091E601095F1F4FEE24E394F12C9E0144
:1029F0002F5F3F4F4DED52E063E082E00E9497145D
:102A0000182F882321F0CE0101960E948322812F66
:102A10002196E6E00C94B92EA5E0B0E0E2E1F5E104
:102A20000C949B2E6B010091E5011091E6010F5F64
:102A30001F4F85E0E82EF12C9E012F5F3F4F49ED9F
:102A400052E061E080E00E949714882349F095E00D
:102A5000FE013196A4EDB2E001900D929A95E1F756
:102A600095E0E4EDF2E0D60101900D929A95E1F740
:102A70002596E8E00C94B72EB0E0A0E0E2E4F5E1A2
:102A80000C94992E7C015B016A010E944C1301E0B9
:102A900010E0882311F00AE010E0C1E0D0E0B501B9
:102AA000C701F6010995811104C021960C171D0775
:102AB0002CF4CDB7DEB7EAE00C94B52ECC9F900194
:102AC000CD9F300D300D112490E080E045E34A9514
:102AD000F1F70000019682179307C1F7E0CF0F933B
:102AE0001F93CF93DF93EC018B014CE055E10E94E3
:102AF0003C15811106C080E0DF91CF911F910F91AD
:102B0000089548EE54E1B801CE010E943C15882397
:102B100091F34DED53E1B801CE010E943C1588239D
:102B200051F341E754E1B801CE010E943C158823DE
:102B300011F34FE454E1B801CE010E943C15DCCF03
:102B4000A8E0B0E0E6EAF5E10C949B2E0091E501E7
:102B50001091E601C801019625E0FB01DC0101901E
:102B60000D922A95E1F765E070E00E946520F8017A
:102B70008083CE0101960E9478228981F8018783A3
:102B800061E070E0CE0101960E946520F801868325
:102B90006085718582859385C090D002D090D102E6
:102BA000E090D202F090D3026C157D058E059F0552
:102BB00051F06093D0027093D1028093D20290932F
:102BC000D3020E94C710F80184850E94801F88E00C
:102BD000F8013D96DE01119601900D928A95E1F77C
:102BE000F801148A8885882329F060E0CE010196D7
:102BF0000E94CA1C2896E8E00C94B72E0E94AA28CE
:102C00000E94210E0E94B72808950E94BC280E94AD
:102C1000380E0E94D62808950E9459260E949028B6
:102C20000E94070E0E94FE150E9405160E94150EB6
:102C3000FBCFEF92FF920F931F93CF93DF93EB01A4
:102C4000E82FD1110EC0442321F0F0E0EA55FC4FEB
:102C5000E4916E2F7E2F8E2FCDB7DEB7E6E00C9479
:102C6000B92E0D2F10E0282F30E0442329F02A55EB
:102C70003C4FF901249130E0F6E0CF9FC0011124D0
:102C8000EFEFF0E0BF010E94102EAB018C2F90E01F
:102C9000880F991FA5E5A49FB001A59F700D112471
:102CA000861B970B982F990F980FBF01601B710B14
:102CB000629FD001639FB00D729FB00D11248B2FC6
:102CC0009D9FB0011124672F7727EF01C61BD70BFB
:102CD000BE01629FE001639FD00D729FD00D112451
:102CE0007F01E91AF108E09EB001E19E700DF09EAF
:102CF000700D1124672F7727E61BF70BE29F8001E9
:102D0000E39F100DF29F100D1124E12F722F42301E
:102D1000510599F048F44115510569F041305105CC
:102D200081F0EB2F8D2F07C04430510569F080F002
:102D300046305105B1F76E2F8FCFE22F7B2F812FB9
:102D4000FACFE22F7D2FF7CFEB2F822F712FF3CF0A
:102D50007B2F822FED2FEFCF41E00E9419160895AF
:102D60000895EDE4F1E08083618308950E94AC163C
:102D70000895CF93DF93762FE901682F842F0E9467
:102D8000B616798368838A83DF91CF910895809105
:102D90007603982F9E7F29F481708260809376035A
:102DA00008958635E8F381708465F8CF88E090E077
:102DB0000E944F2F0895CF92DF92EF92FF926B0106
:102DC0007C010E94C716B701A60188E090E00E942E
:102DD0006D2FFF90EF90DF90CF900895E6E7F3E03E
:102DE00087E1808311828FEF828380E8838314825E
:102DF000A6E3B3E012968C911297836012968C939F
:102E000060817181828193810E94DB160895809197
:102E1000760380FF02C08695089580E00895909122
:102E20007A03933018F49F5F90937A03882351F0CC
:102E30006091760370917703809178039091790384
:102E40000E94DB16089581E00E940F17089590916B
:102E50007A03992319F0915090937A03882351F0C3
:102E60006091760370917703809178039091790354
:102E70000E94DB16089581E00E942717089570E0F4
:102E80000E943820089560914E018091760380FF62
:102E90000BC080914D0123E0829FC0011124855811
:102EA0009C4F0E943F17089580914F0190915001CF
:102EB00023E0829FF0011124E558FC4F891748F761
:102EC0001182108212828F5F3396F8CF9091760331
:102ED00090FF0EC090914F012091500133E0939FDD
:102EE000F0011124E558FC4F921718F00E94431787
:102EF00008958183608342839F5F3396F5CFA3E07B
:102F0000B0E0E5E8F7E10C94A12E9091760390FFF4
:102F10000AC09E012F5F3F4F0E94B9164B81698105
:102F20008A810E9466172396E2E00C94BD2ECF930F
:102F3000DF93EC01EC81F0E0EF55FD4F4491E6E7C3
:102F4000F3E0628181810E947F178C818F5F8C8387
:102F5000DF91CF910895CF93DF93EC01E6E7F3E0A3
:102F6000438162818C810E947F178C818F5F8C836B
:102F7000DF91CF910895A3E0B0E0E1ECF7E10C948C
:102F80009F2E8C018091ED0281110AC09E012F5F5E
:102F90003F4F4FEF6FEF0E94B9168A818093ED0289
:102FA000F8016481613069F08091ED0240E06623B0
:102FB00061F040E0623011F44091ED0280E060E0A9
:102FC00004C06091ED0240E080E00E946617F801C5
:102FD000848190E0019663E070E00E94242E848357
:102FE0002396E4E00C94BB2EA3E0B0E0EAEFF7E117
:102FF0000C949A2E082FD62EF42EC22E9091760382
:1030000090FF3CC020917703281308C0809178037B
:10301000861304C080917903841729F080913803C6
:10302000826080933803E92FE695AE2FB0E0A95176
:10303000BE4F8C91809336039E7F923019F59E018E
:103040002F5F3F4F4F2D6D2D802F0E94B9164B8162
:1030500069818A810E94661700937703D092780372
:10306000F0927903CC2051F0609176037091770350
:1030700080917803909179030E94DB162396E9E012
:103080000C94B62E823019F4F0907903E5CF863097
:10309000A1F1893091F18931F9F6E9516E2F617012
:1030A000B62EE695F0E0EF55FC4F1491E12C6091BF
:1030B0005101E61618F00E944317CECFE19EC001E1
:1030C000112470E00E94102E802FB11014C0860FC2
:1030D00020914F01622F6E0D7727771F9B01220FE2
:1030E000331F260F371F25583C4F4F2D6D2D0E9443
:1030F000B916E394DCCF861BEBCF022FADCFE6E70A
:10310000F3E09181282F4381628188E0890F0E943A
:10311000F417089581E00E947F180895E6E7F3E030
:103120009181282F4381628188EF890F0E94F417D3
:10313000089581E00E948E180895E6E7F3E0628129
:1031400021E1620F08F46FEF282F438181810E94F3
:10315000F417089581E00E949D180895E6E7F3E0D2
:10316000628121E1621B08F460E0282F43818181A4
:103170000E94F417089581E00E94AE180895E6E7D2
:10318000F3E0438121E1420F08F44FEF282F6281E1
:1031900081810E94F417089581E00E94BF1808956C
:1031A000E6E7F3E0438121E1421B08F440E0282FE9
:1031B000628181810E94F417089581E00E94D018F5
:1031C000089520E00E94F4170895EF92FF921F9354
:1031D000CF93DF93EC0110E0EE24EA94F12C6091A0
:1031E0005101161770F00E9443179A818C8190FF4D
:1031F00027C08F5F8C83DF91CF911F91FF90EF905D
:10320000089520914F01422F410F5527551FCA01A4
:103210009A01220F331F280F391F25583C4F70E0A9
:10322000C7010E94242E962F8C81409179036091D2
:103230007803199F800D11240E94B9161F5FCFCF0C
:103240008150D8CFB0E0A0E0E8E2F9E10C94972EED
:10325000EC018A81BB24BA9480FD02C0BB24B394E4
:103260008C8181110AC081E0B81222C08091510185
:1032700081508093EF0281E08C83A12C4CE0942E4E
:1032800080915101A816B8F00E9443178091EF0277
:1032900091E0B91259C0811152C080915101815001
:1032A0008093EF021C82CDB7DEB7ECE00C94B32E16
:1032B0001092EF02E0CF00914F01CA2CD12C0C0DDF
:1032C0001D2D111DC801880F991F080F191F0558C2
:1032D0001C4FF80111821082128234E0E32EF12C8F
:1032E000812C8091EF02880D8D301CF1692D0E9498
:1032F000022E892F082E000C990BC816D90691F4BE
:10330000809179038E9DA0018F9D500D11245595BC
:10331000479555954795980160917803809177037B
:103320000E94B9168B0CF1E0EF1AF108D1F6A394C4
:10333000A7CF87FFDFCF90915101890FDBCF81505D
:103340008093EF02BC82AFCF90E001966091510173
:1033500070E00E94242E8093EF028C83A4CFEF9222
:10336000FF920F931F93CF93DF93EC018C81811118
:1033700009C081E08C831092EE0292E090934C01A0
:1033800080934B0180914F019091500123E0829FE7
:10339000F0011124E558FC4F891758F110E003E0C3
:1033A00060915101161758F10E94431780914B010B
:1033B0002091EE02280F2093EE0290914C01980F7D
:1033C00090934C01191654F4022E000C330B4091CB
:1033D00051014150550B2417350734F081958093E6
:1033E0004B01813009F41C82CDB7DEB7E6E00C94C6
:1033F000B92E1182108212828F5F3396CDCFE12ECB
:10340000F12C70E0C7010E94242E20914F01820F01
:10341000482F50E02091EE02022E000C330BE216F2
:10342000F306BCF020914C01022E000C330B2E153C
:103430003F057CF0809F9001112425583C4F40911E
:10344000790360917803809177030E94B9161F5F1A
:10345000A7CFFA01EE0FFF1FE40FF51FE558FC4F51
:10346000118210821282F3CFB0E0A0E0EAE3FAE129
:103470000C94972EEC014C81042F10E09801D80198
:103480000E94682E9B01AC010E947E2E4B015C01C4
:10349000E0E2F0E0E01BF10BA5E5B0E0AC019B0140
:1034A0000E947E2E6B017C019F01DF010E94602E35
:1034B0009B01AC010E94892E9B01AC01280D391D96
:1034C0004A1D5B1DC701B6010E94382EF22E822FC5
:1034D00090E039E23F1520F143E0249F9001112450
:1034E00035952795122F109500E085E5E82EEF1809
:1034F00080915101081718F10E9443179C8181E0C7
:10350000992319F0903219F48FEF80934A0180913A
:103510004A01890F8C83CDB7DEB7ECE00C94B32E53
:1035200025E530E0B901681B790B9B01220F331FA1
:10353000260F371F37FFD4CF2F5F3F4FD1CF8E2DB0
:1035400001FD8F2D20914F01622F600F7727771F8C
:103550009B01220F331F260F371F25583C4F412F49
:10356000609178030E94B9160F5FC2CF0F931F932B
:10357000CF93DF93EC0110E000E0909151019017A0
:10358000110609F06CF40E9443178C8190E00196BB
:10359000817099278C83DF91CF911F910F910895AE
:1035A00020914F01A801420F511D9A01220F331F94
:1035B000240F351F25583C4F4C8160917803809132
:1035C000770396959017110651F04CF0442349F07B
:1035D000409179030E94B9160F5F1F4FCECF44234D
:1035E000B9F340E0F7CFB0E0A0E0E9EFFAE10C94E6
:1035F000932EFC016280448081E08483E1EAF2E062
:103600007490E0E2F3E0E491C0917903C695C1586B
:10361000D0E0CC0FDD1FCD2FDD27812C75E0972E5C
:10362000AA24AA94B12C55245A94E719EE2EF12C11
:1036300080915101881638F00E944317CDB7DEB74C
:10364000E0E10C94AF2EC82CD12C82E0861568F0F6
:103650009C9CF0019D9CF00D1124ED50FD4F80913C
:1036600077038083809178038183411023C09C9CE1
:10367000F0019D9CF00D1124ED50FD4F138212823C
:1036800020914F01C601820F911D9C01220F331F13
:10369000280F391F25583C4F9C9CF0019D9CF00D34
:1036A0001124ED50FD4F4281618180810E94B91645
:1036B0008394BECF9C9C80019D9C100D11240D50C5
:1036C0001D4FF80183818823F1F081508383859D0C
:1036D000C0011124648170E00E94102EFB01FF27BD
:1036E000EF55FD4F8491E82FE719E59DC0011124A6
:1036F000B7010E94102E80917903689FB0011124B8
:10370000F8017283BDCF0E94142FB5010E94242EB0
:103710008C179D070CF0B4CFF2E0F61598F40E94D8
:10372000142FB5010E94242EF80180830E94142FCB
:10373000209178032695622F70E00E94242E280F96
:10374000F80121839C9CF0019D9CF00D1124ED500B
:10375000FD4F128280917903893C58F088EC9C9C43
:10376000F0019D9CF00D1124ED50FD4F8483838367
:1037700087CF8431A0F784E1F2CF10923803089507
:1037800025E0E6E7F3E0DC0101900D922A95E1F7F0
:10379000209136033091370340913803FC01258393
:1037A000368347830895E6E3F3E0118282818460E3
:1037B00082830895E6E7F3E080818E7F80830E9414
:1037C000D31BE6E3F3E08281816082830E9443178A
:1037D0000895E6E7F3E080818E7F808360817181C8
:1037E000828193810E94DB160E94D31BE6E3F3E003
:1037F0008281816082830E944317089560917603DD
:10380000669570E04BE050E082E591E00E94242F45
:10381000892B19F481E0809337030E94FE10909366
:10382000300380932F0380913803846080933803A2
:1038300008959091760390FF30C0917081112EC051
:10384000926090937603809138038160809338036F
:10385000662351F06091760370917703809178032D
:10386000909179030E94DB1660917603669570E073
:103870004BE050E082E591E00E94242F892BA9F0D3
:103880000E94D31B81E080933203409179036091C1
:103890007803809177030E94E11808958B3210F02D
:1038A0009465CFCF880F982BCCCF0E94FE1BEACF18
:1038B000682F90917603969581E0890F8B3208F0FE
:1038C00081E00E94191C089581E00E94581C08950F
:1038D000682F9091760396958FEF890F09F48AE20D
:1038E0000E94191C089581E00E94681C089561E0FF
:1038F0000E94191C0895E6E7F3E0808181608083CF
:1039000086950E94771C08958091760380FF03C0FE
:103910000E94E91B08950E947B1C089560E00E94AC
:10392000191C089580913503811133C00E94160D32
:10393000811104C00E94A50D0E94EE160E94D616A9
:103940006093760370937703809378039093790361
:10395000809138038360809338036E7F61F40E9406
:10396000EE160E94D61660937603709377038093C9
:103970007803909379030E94C7160E94D31B80910D
:10398000760380FF03C086950E948E1C81E08093A1
:10399000350308951F93CF93DF93EC01162F8F818A
:1039A00080FF0CC0888180FF24C0809176038160F5
:1039B00080937603888186950E94191C8F8181FFF0
:1039C00006C0212F4B816A8189810E94F4178F8163
:1039D00082FF05C08E81882379F00E94FE1B8F81B3
:1039E00083FF03C081E080933203DF91CF911F9169
:1039F00008950E94DA1BE2CF0E94D31BF0CFEF9212
:103A0000FF920F931F93CF93DF9380913703882307
:103A100009F463C080913603E0917603E695E81BD4
:103A2000E0933103823009F05DC0F0E0E356FD4FD2
:103A3000E491CE2FD0E007E917E18091320388238B
:103A400061F0109232030E94FE1090933003809335
:103A50002F0310923403109233030E94FE10E09162
:103A60002F03F09130039C012E1B3F0B2F3F3F474C
:103A7000A0F52091F2022223B1F01092F2022091DF
:103A8000F0023091F102821B930B8F3F9F4758F455
:103A9000205D3A483093F1022093F0028091380380
:103AA000886080933803E0903303F0903403EC0F88
:103AB000FD1FF0933003E0932F038FE293E0F801B2
:103AC00009958091330390913403892B31F4E114EB
:103AD000F10419F081E08093F202CDB7DEB7E6E0A1
:103AE0000C94B92E863049F4F0E0E656FD4FE4918F
:103AF000CE2FD0E00BEA17E1A0CF893051F4E69544
:103B0000F0E0E956FD4FE491CE2FD0E005EE18E14C
:103B100094CF8F3051F4E695F0E0EC56FD4FE491F0
:103B2000CE2FD0E002E219E188CF853149F4F0E0F0
:103B3000EF56FD4FE491CE2FD0E00FEA19E17DCF93
:103B4000C8E2D0E004E31AE1883109F476CF833289
:103B500039F4EFE8F2E0C591D4910BEB17E16DCFAA
:103B6000C4EFD1E006EB1AE1843209F466CFC0ED70
:103B7000D7E000EB16E1853209F05FCF8E2F63E0CE
:103B80000E94F62DE92FF0E0E457FD4FE491CE2F8F
:103B9000D0E003EF1AE151CFFA01811101C0FB011E
:103BA00009950895CF93DF93C82FD62F0E9407174A
:103BB0008C1748F00E9407178D1728F40E94641C88
:103BC000DF91CF9108958C2F0E94771CF9CF1F931E
:103BD000CF93DF93EC01FB011281111110C00E9401
:103BE000280C8272FE01E052F847E531F10508F039
:103BF0005EC0E454F04D0C945A2E0E94841C812F18
:103C0000DF91CF911F91089543E75CE164E67CE189
:103C10000E94CC1DF4CF44E65CE163E77CE1F8CF81
:103C200049E958E16AE878E1F3CF4AE858E169E9FF
:103C300078E1EECF4BEB58E16AEA78E1E9CF4AEA66
:103C400058E16BEB78E1E4CF4DED58E16CEC78E1B5
:103C5000DFCF4CEC58E16DED78E1DACF4BE357E183
:103C600063E277E1D5CF43E257E16BE377E1D0CF71
:103C700081E00E94771CC3CF65E082E00E94D21DE4
:103C8000BECF68E086E0FACF6EE089E0F7CF64E16E
:103C90008FE0F4CF67E185E1F1CF88E1EACF62E21E
:103CA00089E1ECCF83E2E5CF6AE285E2E7CF11E07C
:103CB000A6CF80919F038170089586E090E00E94D6
:103CC000472F0895682F86E090E00E945B2F0895AB
:103CD000EFE9F3E080818470896180830E94621E35
:103CE000089580919F0386958695869508950E94F4
:103CF000160D811104C00E94A50D0E94681E0E942D
:103D00005D1E80939F03803320F0877088628093CC
:103D10009F0390919F03892F817090FF04C0892F8A
:103D20008695869586950E94801F089580919F03B1
:103D3000982F969596959695953040F49F5F990F9C
:103D4000990F990F8770892B80939F0380919F0310
:103D5000816080939F030E94621E80919F038695DD
:103D6000869586950E94801F089580919F03982FC5
:103D7000987F79F0885080939F03887F91E009F4C1
:103D800090E080919F0390FB80F980939F030E94B5
:103D9000621E80919F038695869586950E94801F5E
:103DA000089580919F0380FD13C0816080939F03DD
:103DB000813019F489E080939F0380919F030E94D2
:103DC000621E80919F038695869586950E94801F2E
:103DD000089580919F0380FF08C08E7F80939F038A
:103DE0000E94621E80E00E94801F089580919F03C0
:103DF00080FF03C00E94E91E08950E94D11E08950D
:103E000090919F03892F8695869586958F5F8F71F8
:103E100097708630E0F4880F880F880F892B809385
:103E20009F0380919F03887F91E009F490E0809147
:103E30009F0390FB80F980939F030E94621E8091F4
:103E40009F038695869586950E94801F089590937E
:103E50009F03E7CF863008F085E090919F0397702D
:103E6000282F220F220F220F922B90939F03987FCF
:103E700021E009F420E090919F0320FB90F99093BA
:103E80009F030E94801F08950E942A1F80919F0314
:103E90000E94621E08959C01FB018281882349F1E2
:103EA0002230F8E73F07F9F040F42115E8E73E0734
:103EB00069F02130384779F00895243098E73907C0
:103EC00079F058F02530384789F0089585E00E9450
:103ED000441F80E0089580E0FACF0E94B51EF9CF1C
:103EE0000E94961EF6CF0E94F61EF3CF0E94001F7E
:103EF000F0CF81E00895259A2D9808952D98089582
:103F00008F929F92AF92BF92EF92FF920F931F9367
:103F1000CF93DF93C82F8630C0F5811137C08091D1
:103F200080008F77809380000E947E1FA091860082
:103F3000B09187002C2F30E00E94682E25E030E001
:103F400040E050E00E94382E89019A01809186005D
:103F5000909187006CE070E00E94102E601771074E
:103F6000D8F0C80169E070E00E94102E70938900BB
:103F700060938800DF91CF911F910F91FF90EF9098
:103F8000BF90AF909F908F900895C5E08091800082
:103F9000806880938000CACF8091860090918700CE
:103FA000E0908600F0908700E0918600F091870015
:103FB000C6E0D0E0BE010E94102E060F171F211D83
:103FC000311D4801590185E0880C991CAA1CBB1CB5
:103FD0008A95D1F7C701BE010E94102E9F0150E0C3
:103FE00040E0260F371F411D511DC501B4010E943D
:103FF000382E49015A01E0918600F0918700CA01EC
:10400000B9010E94E62D9B01AC01DF010E947E2ECA
:104010009B01AC01C501B4010E94E62D2FE09695ED
:104020008795779567952A95D1F70091860010912D
:10403000870030E020E0061717072807390708F047
:1040400095CF609186007091870090CF08950E946F
:104050007B1F82E88093800089E1809381008FEF4D
:104060009FEF90938700809386000E94771E0895AB
:10407000569A4BB14F7B5BB15064EFB7F8949B01FC
:10408000220F331F260F371F280F391F2817390714
:1040900041F4EFBF8FE594E00197F1F700C0000015
:1040A0000895DC016D91CD0178E05BB9000000C09E
:1040B00067FF4BB9660F000000C000C000C04BB9DD
:1040C00000C07A9591F7E2CF0895FC01680F791F3F
:1040D0008FEF91E3E617F70709F4089521918227FE
:1040E00028E030E087FF06C0880F8927215031097A
:1040F000C9F7F0CF880FFACFCF93DF93EC01FB0124
:104100008281882309F4D2C09E01305723323105C1
:1041100008F0B2C00E942B0D90935F0380935E0362
:10412000FE01E150F047E232F10520F4EF52F04D8C
:104130000C945A2E80915E03816080935E0393C03D
:1041400080915F03886080935F038DC080915E03E0
:104150008260F3CF80915E038460EFCF80915E0335
:104160008860EBCF80915F038160EDCF80915F032A
:104170008260E9CF80915E038061DFCF80915E0332
:104180008062DBCF80915E038064D7CF0E9481077D
:1041900080915E038068D1CF80915E038C60CDCF2B
:1041A00080915F038360CFCF80915E038E7FC5CF08
:1041B00080915F03877FC7CF80915E038D7FBDCFE6
:1041C00080915E038B7FB9CF80915E03877FB5CFEF
:1041D00080915F038E7FB7CF80915F038D7FB3CFD8
:1041E00080915E038F7EA9CF80915E038F7DA5CFE6
:1041F00080915E038F7BA1CF0E94810780915E0337
:104200008F779BCF80915E03837F97CF80915F03F1
:104210008C7F99CF80915E0382FB992790F921E0F2
:10422000922790FB82F990FB83F987CF80915F03FF
:10423000982F909591708E7F892B90FB81F983CF79
:1042400090915E03892F8F7B96FF806476CF0E94CA
:10425000810790915E03892F97FB87F980586DCF76
:1042600081E00E94A80D80915E0390915F030E94FF
:10427000300D0E94810780E0DF91CF91089580E0AA
:10428000F0CF90915E03892F8F7E94FF806155CF90
:1042900090915E03892F8E7F90FF81604ECF909129
:1042A0005F03892F877F93FF88604DCF81E0E4CF44
:1042B0008FE891E00197F1F700C00000089581E0D8
:1042C00008950E94111308950F931F93CF93DF93C6
:1042D0009091110181E0982790933D03282F291B8D
:1042E00020933C039091110180933E039091110122
:1042F00080933B0380911101811106C087EF809369
:104300005E0186EF80935D0120915E01E22FE295D0
:10431000EF70F0E061A12F7081E090E0AC0101C08E
:10432000440F2A95EAF7342F3095362331A322A182
:10433000242B22A320915D01E22FE295EF70F0E0A3
:1043400031A12F7001C0880F2A95EAF7982F909518
:10435000932391A392A1892B82A30E94582160915B
:104360003E0341E453E0CEE5D1E00DE511E0FA0172
:1043700026C02991822F82958F7090E0DC01909663
:104380008C9190E02F7002C0959587952A95E2F761
:104390008170D8019D918D01292F22952F7030E0D9
:1043A000D90190962C9130E09F7002C035952795E9
:1043B0009A95E2F790E020FD92E0892B81938E2F71
:1043C000841B8617B0F2DF91CF911F910F91089552
:1043D000B0E0A0E0EEEEF1E20C949B2E10E000E0E5
:1043E00084E0C82ED12C80913E03181730F0802F26
:1043F000CDB7DEB7E8E00C94B72EC12FD0E0FE01B8
:10440000E25AFE4F8081E82FE295EF70F0E0E0A1E4
:10441000F0E08F7002C0F595E7958A95E2F7E170BC
:10442000DE01A35ABE4F4C91A42FA295AF70B0E00D
:1044300090968C9190E04F7002C0959587954A9523
:10444000E2F780FD4DC080E08E2BDE01AF5BBC4FFC
:10445000EC919E2F9370981709F440C0EE0FEE0F69
:10446000E82BEC93E0903D03E10EEF70F0E0EE5EA0
:10447000FD4FC15CDC4F80819881890F8883F12CCE
:10448000843084F0EE2DF0E0E75CFC4F80818F5F9C
:1044900080830E946121F82E882321F160E08E2D17
:1044A0000E94040388818D3F84F4EE2DF0E0E75CE8
:1044B000FC4F8081815080830E946121F82E8823E7
:1044C000A1F061E08E2D0E9404038881082E000C6B
:1044D000990BB6010E94242E88830F291F5F83CF7A
:1044E00082E0B2CFFF24F394DDCFFF24F394EDCF2D
:1044F00040913E0350E060913D0370E0675C7C4F6B
:104500000E943E2F0895B0E0A0E0E9E8F2E20C94AA
:104510009B2E6C01D0E080E090913B03D91740F0D6
:1045200081110E94E90DCDB7DEB7E8E00C94B72EFB
:10453000F0903C03FD0E0F2D10E0075C1C4FF601C0
:10454000ED0FF11DC081F8019081C91BEC2E1E14E6
:1045500044F09C2FC7FD90E0C91BC1110DC0DF5F67
:10456000DBCFEA94F80180818F5F808360E08F2D3C
:104570000E94040381E0EBCFCF5FF801808181507E
:10458000808361E08F2D0E94040381E0E6CFCF930A
:10459000DF93EB0186319C4711F50E94280C9A812C
:1045A000992399F08A7A91E009F490E0909343037B
:1045B000811109C089E20E94000C0E94690C80E010
:1045C000DF91CF91089585E3F6CF80914303811168
:1045D00004C089E20E94080CF0CF85E3FBCF81E0A4
:1045E000EFCF0F931F93CF93DF93C42FD22FFC01F4
:1045F00082818823C9F0409346030E94C02690938D
:1046000045038093440380E28C0F883040F4C770E8
:1046100081E001C0880FCA95EAF70E942005DF916A
:10462000CF911F910F91089510914603141332C03A
:1046300080914403909145030E94D826883C9105BF
:1046400048F5C0E2CD0F1D17B9F080E2810F883028
:1046500040F4177081E001C0880F1A95EAF70E94B4
:104660002705C83048F481E09D2F977001C0880F5E
:104670009A95EAF70E942005802F0E941705C830FE
:1046800070F6D77081E001C0880FDA95EAF70E94D2
:104690002705C5CF80E28C0F883008F6C77081E00F
:1046A00001C0880FCA95EAF7F2CF0F93DB0188515A
:1046B0009C4787309105A0F5FC01ED50F04D0C941E
:1046C0005A2E06E221EE41EE6AE17CE7CD010E941E
:1046D000F12280E00F91089507E225EE45EE6BE1AF
:1046E0007CE7F4CF06E221EE40EE68E17CE7EECF16
:1046F00007E225EE44EE69E17CE7E8CF06E221EE31
:1047000042EE6CE17CE7E2CF07E225EE46EE6DE19A
:104710007CE7DCCF08E221E045EE6EE17CE7D6CF16
:1047200012968C91882319F010924603D3CF81E022
:10473000D1CF8EE1489B02C08150E1F7489BFECF6C
:104740000895589880E28A95F1F7589A0895FC01E7
:104750003BE03A95F1F798E020E080E031E040E17D
:104760004A95F1F7880F489B02C08160232742E0F9
:104770004A95F1F7000040E14A95F1F7915079F739
:1047800090E19A95F1F799B132E03A95F1F700008E
:1047900040E14A95F1F7917092272081920F908322
:1047A0000895A1E0B0E0E7EDF3E20C949D2E1982AC
:1047B0008C017C01E60EF11C0E151F0541F481E011
:1047C0009981911180E02196E6E00C94B92E0E9427
:1047D0009923CE0101960E94A723F80181938F01AE
:1047E000EBCF509A589A08955098589AE89AE9E66B
:1047F000F0E080818C7F808308956150770B91E099
:1048000001C0990F6A95EAF720E031E0911108C0E4
:10481000222391F0589A80E28A95F1F758980895EA
:10482000492F482339F0589A232740E24A95F1F757
:104830009695ECCF5898F9CF5898EDCFFF920F93FB
:104840001F93CF93DF93EC018C01060F111DC0174E
:10485000D10729F4CDB7DEB7E5E00C94BA2EF99074
:104860000E94A12368E08F2D0E94FD23F0CF1F92AC
:104870000F920FB60F9211240F931F932F933F9314
:104880004F935F936F937F938F939F93AF93BF9358
:10489000EF93FF93CF93DF930F92CDB7DEB71982DB
:1048A0000E949923CE0101960E94A723082F069506
:1048B00006950695282F22952570902F9570290F23
:1048C000922F937026952695920F9827977089813D
:1048D000982B09F05CC0083008F059C080E18A9537
:1048E000F1F7589A509A82E08A95F1F700C05898EB
:1048F00088E0089F80011124D801AE5EBE4F169655
:10490000ED91FC9117973097A9F06091E5017091B6
:10491000E60114962D913C911597260F371F11969D
:104920008D919C911297680F791F13964C91139754
:104930008C910995F801EE5EFE4F6381662351F07C
:104940002091E5013091E60184819581820F931FCA
:104950000E941E240E94A12380E18A95F1F75898B5
:104960005098589A80E18A95F1F7F801EE5EFE4F73
:104970006081662351F02091E5013091E60181814B
:104980009281820F931F0E94D1230E9499230F903E
:10499000DF91CF91FF91EF91BF91AF919F918F9157
:1049A0007F916F915F914F913F912F911F910F9147
:1049B0000F900FBE0F901F9018950F931F93CF93DA
:1049C000DF93EC0108970CF04CC0F894509A58987B
:1049D00085E08A95F1F700009C2F969595708C2FB5
:1049E0008570980F892F83709695969523E0CC0F4C
:1049F000DD1F2A95E1F7980F8E01092B0E94A12354
:104A000000C068E0802F0E94FD2380E18A95F1F7C5
:104A10005098589A489B1EC087E090E048991CC067
:104A2000FE01EE5EFE4F63816623F9F02091E50101
:104A30003091E60184819581820F931F0E94D123DA
:104A4000811113C0509A589A7894DF91CF911F9199
:104A50000F91089500C0DECF019729F4509A589A1B
:104A6000789480E0F2CF00C0D9CF0E94992380E2F1
:104A70008A95F1F75898509A80E18A95F1F7CE5EC1
:104A8000DE4F6881662351F02091E5013091E60107
:104A900089819A81820F931F0E941E240E94A12364
:104AA000789481E0D2CF90932302809322020895DC
:104AB00090934D0380934C0308950E94111381112C
:104AC00003C0809147030895E0914C03F0914D039A
:104AD000309729F00190F081E02D0995089580E04C
:104AE0000895E0914C03F0914D03309721F002803E
:104AF000F381E02D09950895A3E0B0E0E2E8F5E246
:104B00000C94A12E20914A0330914B0328173907AA
:104B1000A1F090934B0380934A03E0914C03F091F2
:104B20004D03309751F023E029839B838A830680CD
:104B3000F781E02DCE01019609952396E2E00C94D1
:104B4000BD2EA3E0B0E0E7EAF5E20C94A12E20919F
:104B500048033091490328173907A1F0909349037E
:104B600080934803E0914C03F0914D03309751F04E
:104B700024E029839B838A830680F781E02DCE0180
:104B8000019609952396E2E00C94BD2E9C012E5FC0
:104B90003F4FAC01485F5F4F80E02417350709F4B1
:104BA0000895F90191919F019923B9F38F5FF5CF92
:104BB000662349F0FC01329608962191261729F0C8
:104BC000E817F907D1F780E0089581E008959C0186
:104BD000FC0132969FEF80E04191461751F09F3FD4
:104BE00019F4411101C0982F8F5F8630A9F79F3FBC
:104BF00009F40895290F311D97FD3A95F901628353
:104C00000895FC01329608962191261303C0DF0116
:104C100011971C92E817F907B9F708950E94E72544
:104C200008950E9401260895029626E0FC01119243
:104C30002A95E9F7089508950E941B260895811189
:104C400006C081E080934E030E941C26089582E0F6
:104C5000F9CF83E080934E030E941C2608950E94A2
:104C60001F26089581E080934E030E941C2608951C
:104C70000E9432260895089508950E943C260895C2
:104C8000089508950E943B260895CF930E944026E0
:104C90000E9490120E944126C0E08C2F0E94321187
:104CA000811105C0CF5FCA30C1F7CF91089581E06F
:104CB000FCCF85B7806885BF85B7806885BF0895BC
:104CC0001F921FB61F9211248F939F93AF93BF9390
:104CD00080914F03811113C08091A0039091A10393
:104CE000A091A203B091A3034196A11DB11D809391
:104CF000A0039093A103A093A203B093A303BF9139
:104D0000AF919F918F911F901FBE1F90189580911A
:104D1000A803843031F10E94080410924F0388E107
:104D200090E020E40FB6F894A895809360000FBE41
:104D30002093600083B7817F846083BF83B78160E5
:104D400083BF7894889583B78E7F83BF0FB6F8941E
:104D5000A895809160008861809360001092600047
:104D60000FBE08950E9481070E941004089582E0FA
:104D700084BD93E095BD9AEF97BD80936E00089532
:104D80002FB7F8948091A0039091A103A091A20362
:104D9000B091A3032FBF08952FB7F8946091A0039B
:104DA0007091A1038091A2039091A3032FBF089556
:104DB0009C014FB7F8948091A0039091A103A0911A
:104DC000A203B091A3034FBF821B930B0895CF9210
:104DD000DF92EF92FF922FB7F894C090A003D0908B
:104DE000A103E090A203F090A3032FBFA7019601B7
:104DF000261B370B480B590BCA01B901FF90EF90E6
:104E0000DF90CF90089578941F921FB61F921124BF
:104E10008F939F93AF93BF938091A0039091A10331
:104E2000A091A203B091A3030196A11DB11D80938F
:104E3000A0039093A103A093A203B093A303BF91F7
:104E4000AF919F918F911F901FBE1F90189581E089
:104E50008093E00080E28093D8001092C9008FE137
:104E60009EE40197F1F700C0000087E090EBDC01C1
:104E70008093B1039093B203A093B303B093B403B0
:104E800088E19CE00FB6F894A895809360000FBE6F
:104E900090936000FFCF88E19CE00FB6F894A8954E
:104EA000809360000FBE90936000FFCF8091580305
:104EB000089508959B01BA019091A8039430E9F4F4
:104EC0008F708093E9009FEF8091E800915085FDFD
:104ED00006C085ED8A95F1F700009111F5CF80911C
:104EE000E80085FF0AC050E040E0C9010E944D295A
:104EF0008091E8008E778093E800089543E050E0C9
:104F0000BC0182E00E945A270895CF93DF93EC0101
:104F100048E050E0BC0181E00E945A2788E0FE0191
:104F2000A0E5B3E001900D928A95E1F7DF91CF9172
:104F300008958091A703811109C00E94DD2A0E9473
:104F40003A2B8091E20084608093E20008951092F1
:104F5000A70308950E94322608956091A40381E07A
:104F6000611101C080E00E94292608959091A80354
:104F700081E0943009F080E06091A4030E942F2624
:104F8000089542E061EC81E00E94592A42E261EC1E
:104F900082E00E94592A9091A80381E0943009F0A0
:104FA00080E06091A4030E941F2608958091AA03C7
:104FB000833009F461C030F48130D1F1823009F4DA
:104FC0009EC008958A3009F48AC08B3009F46FC0FE
:104FD000893009F050C08091A903813209F04BC09B
:104FE0008091AD039091AE03029708F044C0809188
:104FF000E800877F8093E8008091E80082FF37C057
:105000009091F3008091F200029731F48091F100C9
:10501000813011F0863021F48091F10080935803A3
:105020008091E8008B778093E8000E948D2A23C04E
:105030008091A903813AF9F48091E800877F8093F9
:10504000E8008091AD039091AE03892B61F468E094
:1050500080E593E070E00E949C298091E8008B77C6
:105060008093E800089560E090E080E0F3CF8091C5
:10507000A8038111C1CF08958091A903813AD9F77E
:105080008091AD039091AE03892BA9F78091E80040
:10509000877F8093E8008091E80080FFFCCF8091BB
:1050A00067018093F1008091E8008E77BCCF8091FA
:1050B000A903813201F78091AD039091AE03892B52
:1050C000D1F68091E800877F8093E8000E948D2AC6
:1050D0008091AB03809367010E94810708958091BE
:1050E000A903813241F68091E800877F8093E80030
:1050F0000E948D2A8091AC0380935903089580917A
:10510000A903813A09F0B7CF8091E800877F8093A7
:10511000E8008091E80080FFFCCF80915903C1CF67
:1051200084B7877F84BF0FB6F894A89580916000FC
:10513000886180936000109260000FBE80E890E06C
:105140000FB6F89480936100909361000FBE0E94A7
:10515000382608950E94DD2A0E943A2BE2EEF0E004
:1051600080818460808378940E94B92D08958FE5B2
:1051700091E00E94582508958091A803853031F46C
:105180008091A803853019F00E94B22608950E94EC
:1051900087268091A603882399F30E9445268823B9
:1051A00079F30E9437290E948107EACF08959A0176
:1051B0004091AF035091B0030E94DF280895492F1A
:1051C00055274330510519F168F44130510509F470
:1051D00044C04230510509F445C090E080E050E001
:1051E00040E025C04132510549F142325105A9F74D
:1051F00080E490E043E555E061157105C1F082E37C
:1052000090E041E255E06130710589F0E6CF9927E1
:105210008130910581F0009729F00297F1F6E6EAD6
:10522000F4E002C0E0EDF4E0849190E0AF01F90118
:10523000518340830895E0ECF4E0F6CF89E090E0FC
:1052400046EE54E06115710591F389E090E04FEF6F
:1052500054E06130710559F3C0CF82E190E04FE036
:1052600055E0E5CF8BE390E044ED54E0E0CF80E102
:1052700089BD82E189BD09B400FEFDCF8091D800CF
:105280008F7D8093D8008091E00082608093E00061
:105290008091E00081FDFCCF0895AF92BF92CF9244
:1052A000DF92FF920F931F93CF93DF936C01EB017B
:1052B0008A010E94AC2AF82E811123C00115110524
:1052C00039F0F80180819181C81BD90BC80ED91E15
:1052D000B12CA12C2097A9F08091E80085FD22C077
:1052E0008091E8008E778093E80001151105A1F008
:1052F000F80180819181A80EB91EB182A08285E05B
:10530000F82E8F2DDF91CF911F910F91FF90DF909D
:10531000CF90BF90AF9008950E94AC2A8823D1F21D
:10532000F82EEFCFF60181916F018093F100219764
:10533000FFEFAF1ABF0ACECFFC018091AF0390916F
:10534000B00386179707A0F06115710529F49091B5
:10535000E8009E779093E80090E06115710551F4A4
:10536000911108C08091E80082FF34C080E0089568
:10537000BC01F2CF8091A8038823C1F18530C1F12F
:105380008091E80083FD30C08091E80082FDEACF83
:105390008091E80080FFE1CF8091F3002091F2003E
:1053A000382F6115710519F02830310558F091E05A
:1053B0002830310509F090E02091E8002E77209305
:1053C000E800CBCF81918093F100615071092F5F8C
:1053D0003F4FE7CF8091A803882341F0853041F00B
:1053E0008091E80083FFBECF81E0089582E00895B8
:1053F00083E00895FC018091AF039091B00386177C
:105400009707A0F06115710529F48091E8008E7767
:105410008093E80090E06115710551F4911108C086
:105420008091E80082FF35C080E00895BC01F2CF92
:105430008091A8038823C9F18530C9F18091E800E3
:1054400083FD31C08091E80082FDEACF8091E800C1
:1054500080FFE1CF8091F3002091F200382F611599
:10546000710519F02830310558F091E028303105E8
:1054700009F090E08091E8008E778093E800CBCF30
:1054800084918093F1003196615071092F5F3F4FF5
:10549000E6CF8091A803882341F0853041F08091C8
:1054A000E80083FFBDCF81E0089582E0089583E0A6
:1054B0000895982F973028F08F708093E90081E04D
:1054C00008959093E900242F762F50E0981731F03B
:1054D0007091EC002091ED005091F00021FD02C090
:1054E0009F5FE8CF3091EB003E7F3093EB0030912F
:1054F000ED003D7F3093ED003091EB003160309353
:10550000EB007093EC002093ED005093F00020919D
:10551000EE0027FDE5CF80E008958091A90387FF85
:1055200013C08091E80082FF06C08091E8008B776D
:105530008093E80004C08091A8038111F2CF089500
:105540008091A8038823D9F38091E80080FFF8CFE9
:105550008091E8008E77ECCF2091E4003091E50057
:1055600095E6A9012091EC00822F817020FF06C0F2
:105570008091E80080FF06C080E008952091E80057
:1055800022FD1AC08091A803882389F0853089F014
:105590008091EB0085FD0FC02091E4003091E50083
:1055A00042175307F9F29150E1F684E0089582E042
:1055B000089583E0089581E008950E944C2B0E9495
:1055C000542BE0EEF0E0808181608083E8EDF0E034
:1055D00080818F77808319BCA7EDB0E08C918E7F9E
:1055E0008C9380818F7E80831092A70308950F9300
:1055F0001F93CF93DF930E944C2B0E94542BC8ED36
:10560000D0E088818F7788838881806888838881CB
:105610008F7D888319BC1092A8031092A403109266
:10562000A6031092A50300EE10E0F80180818B7FA5
:10563000808388818160888342E060E080E00E940E
:10564000592AE1EEF0E080818E7F8083E2EEF0E087
:10565000808181608083808188608083F80180817F
:105660008E7F8083888180618883DF91CF911F91B5
:105670000F910895E8EDF0E080818F7E8083E7ED63
:10568000F0E080818160808384E082BF81E080934C
:10569000A7030E94F72A0895E8EDF0E080818E7F4D
:1056A00080831092E20008951092DA001092E100D7
:1056B00008951F920F920FB60F9211242F933F93CC
:1056C0004F935F936F937F938F939F93AF93BF930A
:1056D000EF93FF938091E10082FF0BC08091E20085
:1056E00082FF07C08091E1008B7F8093E1000E94E0
:1056F000B82D8091DA0080FF19C08091D80080FF1A
:1057000015C08091DA008E7F8093DA008091D900F5
:1057100080FF96C080E189BD82E189BD09B400FEA9
:10572000FDCF81E08093A8030E9499278091E1003A
:1057300080FF19C08091E20080FF15C08091E200D7
:105740008E7F8093E2008091E20080618093E2008E
:105750008091D80080628093D80019BC85E0809346
:10576000A8030E94AD278091E10084FF2BC08091A7
:10577000E20084FF27C080E189BD82E189BD89B54F
:10578000982F917080FFFBCF8091D8008F7D809300
:10579000D8008091E1008F7E8093E1008091E2004B
:1057A0008F7E8093E2008091E20081608093E2002E
:1057B0008091A403882309F449C084E08093A8035E
:1057C0000E94B6278091E10083FF29C08091E2000A
:1057D00083FF25C08091E100877F8093E10082E014
:1057E0008093A8031092A4038091E1008E7F8093A0
:1057F000E1008091E2008E7F8093E2008091E200E0
:1058000080618093E20042E060E080E00E94592ADB
:105810008091F00088608093F0000E94AA27FF9199
:10582000EF91BF91AF919F918F917F916F915F9118
:105830004F913F912F910F900FBE0F901F90189591
:1058400019BC1092A8030E94A72770CF8091E30093
:1058500087FD93E09093A803B3CF1F920F920FB6EA
:105860000F9211242F933F934F935F936F937F93E6
:105870008F939F93AF93BF93CF93DF93EF93FF9358
:10588000D091E900DF708091EC00C82FC17080FDDD
:10589000C0E81092E9008091F000877F8093F000CB
:1058A00078940E94712C1092E9008091F000886039
:1058B0008093F000CD2BCF70C093E900FF91EF9162
:1058C000DF91CF91BF91AF919F918F917F916F9118
:1058D0005F914F913F912F910F900FBE0F901F90AE
:1058E0001895AAE2B0E0E7E7FCE20C94A02E89EA62
:1058F00093E02091F100FC012193CF01F3E0813B83
:105900009F07B9F70E94D6278091E80083FF1EC148
:105910008091A9039091AA039A3008F017C1E92F4A
:10592000F0E0E650F04D0C945A2E803899F0823811
:1059300009F00CC18091AD038F70873008F006C16B
:105940008093E9008091EB0085FB882780F9109215
:10595000E90006C08091A5039091A6039111826091
:105960009091E800977F9093E8008093F100109267
:10597000F1008091E8008E77E5C0882309F4D3C058
:10598000823009F0E3C08091AB038111D6C08091D1
:10599000AD038F702FEF280F263008F0D7C080930B
:1059A000E9002091EB0020FFC8C0933031F48091D2
:1059B000EB0080628093EB00C0C09091EB0090619F
:1059C0009093EB0021E030E001C0220F8A95EAF7C6
:1059D0002093EA001092EA008091EB008860EACF01
:1059E0008111B4C01091AB031F778091E3008078E0
:1059F000812B8093E3008091E800877F8093E8000B
:105A00000E948D2A8091E80080FFFCCF8091E30006
:105A100080688093E30082E0111183E08093A80303
:105A200095C08058823008F091C08091AB0390916E
:105A3000AC038C3D23E09207A1F583E08A838AE2E0
:105A400089834FB7F894DE01139620E03EE051E2DF
:105A5000E32FF0E050935700E49120FF03C0E2955C
:105A6000EF703F5FEF708E2F90E0EA30C0F0C79686
:105A70008D939D932F5F243159F74FBF8091E8009C
:105A8000877F8093E8006AE270E0CE0101960E9471
:105A90009C298091E8008B778093E80057C0C096DE
:105AA000E7CF6091AD037091AE03AE014F5F5F4FE2
:105AB0000E94D728BC01892B09F448C09091E800C6
:105AC000977F9093E80089819A810E94FA29E1CF1B
:105AD0008038E1F58091E800877F8093E80080912D
