:100000000C94E0020C9482260C9418030C941803B0
:100010000C9418030C9418030C9418030C941803F4
:100020000C9418030C9418030C94882D0C945A2EDD
:100030000C947E280C9418030C9418030C94180349
:100040000C9418030C9418030C9418030C941803C4
:100050000C9418030C9422290C9418030C94180384
:100060000C9418030C9418030C9418030C941803A4
:100070000C9418030C9418030C9418030C94180394
:100080000C9418030C9418030C9418030C94180384
:100090000C9418030C9418030C9418030C94180374
:1000A0000C9418030C9418030C9418036005600555
:1000B0008C058C05F4051F071F071F071206AB06EA
:1000C000BC06BC06C72EEE2EE62FEE2EE62F3A2FEC
:1000D0005D2FE62FB42FC32F35001E001F00200018
:1000E000210022002B0014001A0008001500170040
:1000F000296104001600070009000A002F621D0094
:100100001B0006001900050000000000E30001517B
:100110002C007C002A002700260025002400230054
:100120002A00130012000C0018001C0034003300D9
:100130000F000E000D000B00307238003700360043
:100140001000110000000000E700025128747D003B
:10015000C35C0100010001000100BE00005C010061
:10016000010001000100010001003A003B003C00D9
:100170003D003E00010001000100010001000100FE
:100180000000000001000100010001000100010069
:10019000010001000100BD00AD00AE000100010042
:1001A00001000100AC00AB004F00520051005000B4
:1001B000AA00A900010001000100010000000000E8
:1001C0000100010001000100010001000100010027
:1001D000010001000100010001002F0230020100B6
:1001E00001000100010026022702010001000100B8
:1001F00001002F003000010000000000010001009C
:1002000001000100010001000100010001000100E6
:1002100001000100010001000100010001000100D6
:1002200031002E002D00010001000100010001003D
:1002300001000100000000000100010001000100B8
:1002400001000100010001000100010001000100A6
:100250000100010001000100010001000100010096
:100260000100010001000100010001000100010086
:100270000000000001000100010001000100010078
:100280000100010001000100010001000100010066
:100290000100010001000100010001000100010056
:1002A0000100010001000100010001000000000048
:1002B00001000100010001001E0F0500047F3F1F27
:1002C000643214643214783C1E1E140A052223255D
:1002D0002628292A2C2D2F3032333536383A3B3D0B
:1002E0003E4042434547494A4C4E50515355575959
:1002F0005A5C5E6062646668696B6D6F7173757776
:10030000797B7D7F81838587898A8C8E9092949674
:10031000989A9C9E9FA1A3A5A7A8AAACAEAFB1B383
:10032000B4B6B8B9BBBCBEBFC1C2C3C5C6C7C9CAD3
:10033000CBCCCDCED0D1D2D2D3D4D5D6D7D7D8D995
:10034000D9DADADBDBDBDCDCDCDCDCDDDDDDDDDCF3
:10035000DCDCDCDCDBDBDBDADAD9D9D8D7D7D6D505
:10036000D4D3D2D2D1D0CECDCCCBCAC9C7C6C5C3C7
:10037000C2C1BFBEBCBBB9B8B6B4B3B1AFAEACAA14
:10038000A8A7A5A3A19F9E9C9A98969492908E8CC4
:100390008A89878583817F7D7B79777573716F6D9E
:1003A0006B6968666462605E5C5A59575553515078
:1003B0004E4C4A4947454342403E3D3B3A3836352C
:1003C0003332302F2D2C2A292826252322FFAA7FDD
:1003D0005540000101010101010101010202020277
:1003E00002020202020303030303030303040404DF
:1003F00004040404050505050506060606060707A8
:1004000007070708080808090909090A0A0A0B0B5F
:100410000B0C0C0C0D0D0D0E0E0E0F0F0F101011FE
:100420001111121213131414151516161717181884
:1004300019191A1A1B1B1C1D1D1E1E1F20202122EC
:1004400022232424252626272829292A2B2C2D2D32
:100450002E2F30313232333435363738393A3B3C4F
:100460003D3E3F404142434445464748494A4C4D42
:100470004E4F50515354555658595A5B5D5E5F610B
:100480006264656668696B6C6D6F7072737577789E
:100490007A7B7D7E8082838587888A8C8E8F9193FC
:1004A0009596989A9C9EA0A2A3A5A7A9ABADAFB123
:1004B000B3B5B7BABCBEC0C2C4C6C9CBCDCFD1D408
:1004C000D6D8DBDDDFE2E4E7E9EBEEF0F3F5F8FAAE
:1004D000FDFF1803490072006900730020005200FC
:1004E000650076002E002000350000000E034B0052
:1004F00065006500620069006F00000004030904E4
:1005000009023B00020100A0FA09040000010301F6
:1005100001000921110100012240000705810308A3
:10052000000109040100010300000009211101007C
:10053000012232000705820320000112010002009F
:1005400000000810CB565200050102000105010908
:1005500080A101850319012AB700150126B700956E
:100560000175108100C0050C0901A1018504190164
:100570002AA002150126A002950175108100C00570
:10058000010906A101050719E029E71500250195D4
:100590000875018102950175088101050719002977
:1005A000FF150026FF009506750881000508190152
:1005B0002905950575019102950175039101C0000A
:1005C00011241FBECFEFDAE0DEBFCDBF04B603FEBD
:1005D00018C08091AC039091AD03A091AE03B0918F
:1005E000AF038730904BA740B04B59F41092AC0347
:1005F0001092AD031092AE031092AF03E0E0F8E367
:10060000099512E0A0E0B1E0EEE7F3E602C0059044
:100610000D92A831B107D9F723E0A8E1B2E001C0FB
:100620001D92AC3AB207E1F70E945C170C94BD3101
:100630000C940000CF93DF93D82FC62F0E94CE23B7
:10064000882389F0D11106C0CC2311F089EA09C0B2
:100650008AEA07C0D13039F4CC2311F08EE401C00E
:100660008BE40E940E0580E0DF91CF91089581E038
:10067000089581E008950C94390308950C943D0386
:100680001F93CF93DF9300D000D01F92CDB7DEB77A
:1006900049835A836B8330911B0289819A8131117E
:1006A00014C0662359F0222349F00E945A09182FDA
:1006B000682F89819A810E94010903C00E942D0937
:1006C000182F69817A81812F04C00E945A0969819B
:1006D0007A810F900F900F900F900F90DF91CF9134
:1006E0001F910C948F10FC01262F40815181628153
:1006F000738184810C94400381E00895CF93DF934C
:10070000EC0160E00E947303BE01DF91CF910C9475
:100710003E030C9405120C94011208950E94AB073D
:100720000E948D032FEF84E39CE021508040904095
:10073000E1F700C000000C9448290F931F93CF935A
:10074000DF938C0161E00E947303EC01B8010E9409
:100750003B03882309F44BC0B801CE010E9441211C
:10076000882309F444C0B801CE010E948F25882354
:10077000F1F1B801CE010E947F228823C1F1B801B6
:10078000CE010E94EB24882391F1B801CE010E9492
:100790007D1F882361F1F8018281882309F1CB351F
:1007A0008DE5D807C1F050F4C115FCE5DF0781F0F5
:1007B000CF3DDC45A9F40E948B0E19C0CC35EDE588
:1007C000DE0761F0CD35DD4559F40E94D40D08C037
:1007D0000E948E030CC00E94DD0D02C00E94E00D3D
:1007E000C801DF91CF911F910F910C94370380E0E6
:1007F000DF91CF911F910F9108950E94612880E0B1
:100800000E9476210C941B040E9465200E941E0405
:100810000C94672808950C940A0481E008950C94C0
:100820000D040895CF93C82F0E940B048C2F0E94B3
:100830000F04CF91089580E00C9412040E94AD271C
:100840000C9412040E94AD2790911A02891721F08E
:1008500080931A020C9412040895CF93DF93CDB7BE
:10086000DEB72B970FB6F894DEBF0FBECDBF4F8318
:10087000588769877A878B8761110E94200D9E01B6
:100880002F5F3F4F86E0F90111928A95E9F785E0E5
:10089000FE013796D90101900D928A95E1F7898181
:1008A0009A814C815D81452B31F09F3F31F491E07D
:1008B0008F3F19F403C091E001C090E090FF09C0A0
:1008C00049815A816B817C818D819E810E94410C7E
:1008D00005C0C9010E947C038111F2CF2B960FB68F
:1008E000F894DEBF0FBECDBFDF91CF910895FC011C
:1008F000808191810E949C090895CF93882309F4F7
:1009000048C0C82F8CEF8C0F813AD0F46C2F8091A7
:100910000601909107010E940328882349F06C2F5B
:1009200080910601909107010E943B280E94420D90
:100930006C2F80910601909107010E9439280CC00C
:1009400080E28C0F883058F4C77081E001C0880FB6
:10095000CA95EAF70E94030DCF910C94420DEBE586
:10096000EC0FE33040F4F0E0E955FE4F808190E079
:10097000CF910C94CB27C85AC73158F4EC2FF0E034
:10098000EE0FFF1FE758FE4F80819181CF910C94AD
:10099000E127CF910895882349F1682F8CEF860FC6
:1009A000813A38F480910601909107010E943B281A
:1009B0000CC080E2860F883050F4677081E001C07F
:1009C000880F6A95EAF70E94090D0C94420D8BE599
:1009D000860F833020F480E090E00C94CB27685A97
:1009E000673120F480E090E00C94E12708951F9394
:1009F000CF93DF93182FEB010E947D04209741F0E5
:100A00008FE99FE00197F1F700C000002197F6CF32
:100A1000812FDF91CF911F910C94CB04893319F072
:100A200060E070E002C060E570E00C94F704882399
:100A300021F00E94030D0C94420D0895882321F0AB
:100A40000E94090D0C94420D0895CF92DF92EF920F
:100A5000FF920F931F93CF93DF937C01D62FC72F65
:100A6000FC011281058102950F700E94F90C882308
:100A7000B9F01123A9F08C2F807F803421F080E21F
:100A80008D0F883068F080915A0382FD09C082E0A2
:100A90000E94A20D0E94F90C91E0D82ED92601C027
:100AA000D12CCC2EC2948FE0C8228C2D90E08C30BB
:100AB000910508F0C4C1FC01EA5AFF4F0C94A03024
:100AC0008C2F807FCF70882311F0C295C07F1123B7
:100AD00099F0CC2309F49FC180E28D0F883010F08B
:100AE000D11104C08C2F0E94030D03C08C2F0E94D3
:100AF000130D0E94420D8FC18D2F0E94CB04CC2379
:100B000009F49DC180E28D0F883038F1DD2329F191
:100B10008C2F0E94190D24C08C2F807FCF708032C3
:100B200011F0C295C07FDD2319F0D130A1F13DC095
:100B300080915A0382FF17C0112349F0CC2329F07A
:100B40008C2F0E94030D0E94420D80E065C180E061
:100B50000E94CB04CC2309F472C18C2F0E94090D92
:100B60000E94420D6CC1112371F0002341F001304D
:100B700031F40E94230D8C2B0E942B0D60C10E942A
:100B8000230D8C2B1DC0002319F0013009F457C12F
:100B90000E94380D25C0112321F0063008F04FC106
:100BA0000EC0053008F04BC11BC0112361F00023BB
:100BB00031F0F701858180FF2EC18F7085838C2FE6
:100BC0000E9417053CC1002359F0D93309F034C104
:100BD000FFEF07EE13E0F15000401040E1F72AC1AB
:100BE0008C2F0E941E052BC18C2F869586958370B5
:100BF00019F0813061F023C1112321F08D2F9C2F3A
:100C0000937002C080E090E00E94CB2720C11123A6
:100C100021F08D2F9C2F937002C080E090E00E9405
:100C2000E12715C18C2F837009F047C011110BC14A
:100C30002D2F229526952770220F220F6D2F6F7072
:100C4000862F90E0A0E0B0E0022E04C0880F991F2C
:100C5000AA1FBB1F0A94D2F7D4FF10C04FE050E088
:100C600060E070E004C0440F551F661F771F2A958F
:100C7000D2F7409550956095709503C040E050E0E4
:100C8000BA01C695C695C3708A019B01082B192B22
:100C90002A2B3B2BC901B801C23049F058F4C130AE
:100CA00019F00E941708CFC00E940508CCC00E940E
:100CB0002908C9C00E940308C6C0112319F08C2F4F
:100CC000817001C08695882309F4BDC02D2F22951F
:100CD00026952770220F220F6D2F6F70862F90E0C0
:100CE000A0E0B0E0022E04C0880F991FAA1FBB1F0E
:100CF0000A94D2F7D4FF10C04FE050E060E070E0FB
:100D000004C0440F551F661F771F2A95D2F74095E0
:100D100050956095709503C040E050E0BA01C695CB
:100D2000C695C3708A019B01082B192B2A2B3B2BDC
:100D3000C901B801C23049F058F4C13019F00E941D
:100D4000DC0881C00E94CA087EC00E94EE087BC0F9
:100D50000E943D0878C0CF70112339F08C2F0E947B
:100D600063088D2F0E9417056EC08D2F0E941E05EF
:100D70008C2F0E94840867C0D23F21F128F4D03F15
:100D800041F0D13FC1F043C0D33F19F1D43F79F0D6
:100D90003EC0112341F0053008F051C08C2F8F71F7
:100DA0000E94A9084CC0063008F049C0F7CF8091D6
:100DB0005A0382FF18C0112339F08C2F8F710E94C3
:100DC00063083DC01123C9F38C2F8F710E948408E2
:100DD00036C0112329F08C2F8F710E944E082FC02E
:100DE0000E9449082CC0112349F0CF718C2F0E941A
:100DF000630863E08C2F0E94870D21C081E00E9470
:100E0000A20D0230E0F082E00E94A20D18C0112372
:100E100031F0002391F28D2F0E947D0410C0002339
:100E200099F2D93349F41FEF27EE33E011502040F7
:100E30003040E1F700C000008D2F0E94CB0488EF06
:100E40008C0D843020F40E94AD270E941204DD2016
:100E5000C9F00E94F50C80FD15C0F70112820E94B6
:100E6000EF0C0E946308C7010E9463070E94EF0C09
:100E7000DF91CF911F910F91FF90EF90DF90CF9076
:100E80000C948408DF91CF911F910F91FF90EF9008
:100E9000DF90CF9008950F931F93CF93DF93EC01D2
:100EA000688179818A810E94A7098C010E940009CA
:100EB0000E94F107B801CE010E942505DF91CF9174
:100EC0001F910F910895CF93DF93EC019881898151
:100ED0002B813C81232B31F08F3F31F481E09F3F08
:100EE00019F403C081E001C080E080FD1DC0CE0187
:100EF0000E949D03811110C00E94F90C8823A1F06B
:100F00008A81882389F080915A0382FD0DC082E096
:100F1000DF91CF910C94A20DCE010E944B07CE0120
:100F2000DF91CF910C947E03DF91CF91089580E003
:100F300090E00E94CB2780E090E00E94E1270E9491
:100F4000200D0C94420D80910601909107010E94A2
:100F50003D280C9497070E94100D0C94A3079295BE
:100F60009F70963079F010F4925001C09A509230F0
:100F700068F4803F69F018F4883E40F409C0843F6B
:100F800029F406C0883E20F0813F11F080E00895EA
:100F900081E00895FC01808191810E949C090E945A
:100FA000AF070895CF93DF9300D000D01F92CDB745
:100FB000DEB70F900F900F900F900F90DF91CF91B1
:100FC0000895CF93DF9300D000D000D0CDB7DEB727
:100FD00026960FB6F894DEBF0FBECDBFDF91CF913E
:100FE0000895089508950C94F2070C94F3070E9455
:100FF000F507609348027093490280934A029093E8
:101000004B020C9497070C94F7070F931F930091D2
:1010100048021091490220914A0230914B02602B04
:10102000712B822B932B1F910F910C94F7070F9329
:101030001F93009148021091490220914A02309179
:101040004B0260237123822393231F910F910C94F1
:10105000F7070F931F9300914802109149022091C6
:101060004A0230914B0260277127822793271F91F4
:101070000F910C94F7070C94F2070E943B086093C1
:1010800044027093450280934602909347020C9469
:10109000970760E070E0CB010C943D080F931F931D
:1010A00041E050E060E070E08A019B0104C0000F65
:1010B000111F221F331F8A95D2F7C901B8011F9152
:1010C0000F910C943D080F931F9341E050E060E0B6
:1010D00070E004C0440F551F661F771F8A95D2F732
:1010E0008091440290914502A0914602B09147023E
:1010F0008A019B01082B192B2A2B3B2BC901B80114
:101100001F910F910C943D080F931F9341E050E005
:1011100060E070E004C0440F551F661F771F8A957A
:10112000D2F74095509560957095809144029091CA
:101130004502A0914602B09147028A019B01082313
:1011400019232A233B23C901B8011F910F910C9445
:101150003D080F931F9341E050E060E070E004C051
:10116000440F551F661F771F8A95D2F7809144025E
:1011700090914502A0914602B09147028A019B01DD
:10118000082719272A273B27C901B8011F910F916A
:101190000C943D080F931F93009144021091450257
:1011A0002091460230914702602B712B822B932BAA
:1011B0001F910F910C943D080F931F9300914402CF
:1011C000109145022091460230914702602371231D
:1011D000822393231F910F910C943D080F931F932B
:1011E000009144021091450220914602309147023D
:1011F00060277127822793271F910F910C943D0838
:101200000895292F220F920F990F890FE82FE69545
:10121000E695E695877051E001C0550F8A95EAF78B
:1012200085E0E89FF0011124E45EFD4F20E030E00E
:1012300070E04081CB01022E02C0969587950A94FA
:10124000E2F78170819584278523842781932F5F1E
:101250003F4F2530310569F70895292F220F920F4E
:10126000990F890F682F669566956695982F9770E8
:1012700085E0689FB001112440E050E080E0FB0170
:10128000E40FF51FE45EFD4F208130E0092E02C01F
:10129000369527950A94E2F721703327042E01C072
:1012A000220F0A94EAF7822B4F5F5F4F45305105BA
:1012B00031F70895BF92CF92DF92EF92FF920F9392
:1012C0001F93CF93DF938C01C0904402D0904502CE
:1012D000E0904602F09047028091480290914902C6
:1012E000A0914A02B0914B02C82AD92AEA2AFB2AC5
:1012F000CFE1D0E0D701C6010C2E04C0B695A7956A
:10130000979587950A94D2F780FD04C0219790F7AE
:10131000B12C07C0BC2EB8018C2F0E94A2100197DF
:10132000A9F38B2DDF91CF911F910F91FF90EF903B
:10133000DF90CF90BF900895CF93DF93EC010E9490
:101340005A09BE010E94A210DF91CF9108951F9308
:10135000CF93DF93EB0190911B02992321F0CB01F6
:101360000E949C0913C0882349F0CB010E945A09AE
:10137000182F682FCE010E94010904C0CB010E94E2
:101380002D09182FBE01812F0E94A210DF91CF914D
:101390001F9108951F93CF93DF93C0914C0216E0E5
:1013A00080914D02C81799F0D0E01C9FF0011D9F5D
:1013B000F00D1124E25BFD4F408151816281738108
:1013C000848195810E94E1072196C770E9CFDF9162
:1013D000CF911F91089540917E0250917F026091BC
:1013E00080027091810280918202909183020C941C
:1013F000E107EF92FF920F931F93CF93DF938091BA
:10140000830282958F7009F065C0809180028823E5
:1014100009F460C080914C02F0904D0210917E0260
:1014200000917F02609181027091820291E01F3FE2
:1014300009F090E0C0910401D0910501292F96E0B8
:10144000E92E8F1509F446C06115710521F00F3F93
:1014500021F030E003C031E001C0322F90E030FDD8
:1014600036C0E89EF001E99EF00D1124DF01A25B79
:10147000BD4F11963C911197301329C03C91311307
:1014800026C012963C911297311121C013964D91AE
:101490005C911497461B570B4C175D07C0F4809165
:1014A00083028F70806180938302ED5AFD4F8081AB
:1014B0008F70806180838EE792E00E946307DF91E6
:1014C000CF911F910F91FF90EF900C94CA09019654
:1014D0008770B7CFDF91CF911F910F91FF90EF9061
:1014E00008959F92AF92BF92CF92DF92EF92FF92B8
:1014F0000F931F93CF93DF93CDB7DEB761970FB6EE
:10150000F894DEBF0FBECDBF8C0185E0F801DE018F
:101510001D9601900D928A95E1F7D8011296EC90F4
:1015200090917E02E0917F022091810230918202AF
:101530002115310531F0EF3F31F481E09F3F19F47F
:1015400003C081E001C080E0B82FB1709B2E80FD08
:1015500047C1D8014C9111965C9111971396AD90AB
:10156000BC9014978EE7C82E82E0D82EF0908002AF
:10157000B501621B730B2091040130910501FF201E
:1015800009F4D9C0809183026217730708F095C0EF
:10159000282F207F09F052C05E1313C0491311C0D9
:1015A000FE2CE1100EC08F708061809383020E9438
:1015B000EB09C6010E94630780918302F8018583CD
:1015C0004DC1AB2831F05F3F31F481E04F3F19F45A
:1015D00003C081E001C080E080FD03C081E08E2572
:1015E00002C080E090E0F82FF170FF2E80FF1CC059
:1015F00080914C0220914D0236E0821709F40BC114
:1016000090E0389FF001399FF00D1124E25BFD4F0F
:101610006181561306C06081461303C06281E612E1
:1016200003C001968770E9CFFE2CEE2009F416C1A5
:101630008091830281608093830254C05E1306C050
:10164000491304C0E11002C0F80199C0C8010E940A
:10165000CA07882361F1EE2051F120918302822F85
:1016600082958F7090E0029774F080917E02909145
:101670007F0298878F831986BB86AA862C87CE0126
:1016800007960E94630786E0F801AEE7B2E001909A
:101690000D928A95E1F70E94F9090E94EB090AC0B0
:1016A0005E1711F1C8010E94CA0781112CC0C80140
:1016B0000E946307FF24F394D1C0282F207F81F775
:1016C0007A2DB98AA88A6E2D89890E94D2078EE761
:1016D00092E00E94630786E0D6011D928A95E9F7A1
:1016E0000E94EB09F12CBAC04913DCCFE110DACF2C
:1016F000F8018583C8010E94630786E0D6011D9228
:101700008A95E9F7ABC0EE2091F220918302822FF7
:1017100082958F7090E002970CF4B5CF80917E0295
:1017200090917F029A8389831B82BD82AC822E8333
:10173000CE010196A6CF6217730708F044C0FE2CB5
:10174000EE2009F4B4CF5E1330C049132EC02091AF
:10175000830220FD21C0822F82958F70482F50E098
:1017600041155105C9F0F80125834F30510541F06D
:101770008F5F982F9295907F822F8F70892B858312
:10178000C8010E94630786E0F801AEE7B2E001906D
:101790000D928A95E1F73CC086E0F801AEE7B2E031
:1017A00001900D928A95E1F759C0C8010E94CA07BD
:1017B000811169CF80918302816080938302C80187
:1017C0000E9463074BC07A2DB98AA88A6E2D898939
:1017D0000E94D20786E0D6011D928A95E9F718C0CB
:1017E000EE2009F464CFC8010E94CA07F82E8823AE
:1017F00009F45DCF86E0F801AEE7B2E001900D920A
:101800008A95E1F78EE792E00E9477040E94F90939
:101810000E94EB0923C04D875E878D859E850E94BF
:101820009C09292F22952F70223028F49F7039F0BF
:10183000811105C00BC0243028F49F7049F4805EEC
:10184000883020F0C8010E9463079F2CF92C06C045
:10185000D80115969C91907F91F7F8CF8F2D6196C6
:101860000FB6F894DEBF0FBECDBFDF91CF911F91B1
:101870000F91FF90EF90DF90CF90BF90AF909F902F
:1018800008951F93CF93DF93CDB7DEB72C970FB694
:10189000F894DEBF0FBECDBF4F83588769877A8724
:1018A0008B879C87CE0107960E94710A8823D1F00E
:1018B0009F8188852A853B85232B31F08F3F31F42A
:1018C00081E09F3F19F403C081E001C080E080FD0A
:1018D00047C04F81588569857A858B859C850E9494
:1018E000E1073EC086E0FE013796DE0111960190C9
:1018F0000D928A95E1F7FF81E8856A857B85611500
:10190000710531F0EF3F31F481E0FF3F19F403C07E
:1019100081E001C080E080FD23C020914D0230E0D5
:10192000C90101968770992740914C0250E08417B5
:101930009507F1F1F983EA837D836C8396E0929FAA
:10194000D001939FB00D1124A25BBD4FFE013196D3
:1019500001900D929A95E1F780934D020E94CA0979
:1019600016E080914C0290914D02891771F1189FF9
:10197000C0011124825B9D4F0E94710A882329F1C6
:10198000E0914C021E9FF0011124E25BFD4F40816B
:10199000518162817381848195810E94E1078091E8
:1019A0004C0290E001968770992780934C02D9CF22
:1019B0000E94AB0710924D0210924C02EEE7F2E04B
:1019C00086E0DF011D928A95E9F72C960FB6F89410
:1019D000DEBF0FBECDBFDF91CF911F9108958091E3
:1019E0008C02859585958595089580918C028770E8
:1019F000089590918C02977081E009F480E0089539
:101A000080919702089590919702892B8093970275
:101A10000895809590919702892380939702089565
:101A200010929702089590919602892B80939602C6
:101A30000895809590919602892380939602089547
:101A400010929602089580918D02089508950C9445
:101A5000260D0C94270D90915A0392FD08C0909189
:101A60008D02981721F080938D020C94290D089512
:101A700080918D02882329F010928D0280E00C94D1
:101A8000290D0895CF93DF93E0910601F0910701AE
:101A9000809197028083E0910601F0910701908187
:101AA00080919602892B808380918D02882381F01A
:101AB000E0910601F09107019081892B808380914C
:101AC0000601909107010E94F72781110E94380DAD
:101AD000C0910601D091070148E050E064E872E04F
:101AE000CE010E944031892B69F088E0FE01A4E814
:101AF000B2E001900D928A95E1F7CE01DF91CF918E
:101B00000C94C027DF91CF9108950C94260D9091ED
:101B10005A0392FD10C098E0899F90011124262B52
:101B200020938C020E94630880918C028595859594
:101B300085950C94850D0C94630810928C0280E0BE
:101B40000C94850D20918C028095822380938C02C9
:101B5000982F977099F430E0482F082E000C550B01
:101B60002417350759F090915A0392FD07C08595C7
:101B7000859585950E9484080C949D0D08959091FB
:101B80005A0392FB222720F9281769F080FB92F96B
:101B900090935A038091590390915A030E94070E23
:101BA00082E00C94A20D089580915A0382FB88274D
:101BB00080F991E089270C94BF0D81E00C94BF0D52
:101BC00080E00C94BF0D80E090E00E94643121E041
:101BD000893E9E4F09F020E0822F089582E090E038
:101BE0000C94563183E090E00C945631CF9384E00E
:101BF00090E00E945631C82F82E290E00E94563158
:101C00002C2F30E0A901582BCA01CF910895CF9312
:101C1000C92F682F84E090E00E946A316C2F82E225
:101C200090E0CF910C946A31AB01BC018FE090E061
:101C30000C947C31AB01BC0183E190E00C947C31CD
:101C400060E070E0CB010C941A0E60E070E0CB0114
:101C50000E94140E0C94200E69EE7EEF80E090E05E
:101C60000E94883160E082E090E00E946A3160E08A
:101C700083E090E00E946A3110924802109249027B
:101C800010924A0210924B0260E084E090E00E94C1
:101C90006A3160E082E290E00E946A3160E085E0B3
:101CA00090E00E946A3160E086E090E00E946A3134
:101CB0006FEF87E090E00E946A3140E050E0BA01A7
:101CC00088E090E00E947C3160E08DE090E00E942E
:101CD0006A3140E050E0BA0188E190E00E947C3136
:101CE00060E087E190E00E946A3140E050E0BA0194
:101CF0008CE190E00E947C3160E070E080E290E056
:101D00000E94883140E050E0BA0188E190E00E94F2
:101D10007C310C94250E0C942C0E682F8EE090E0F4
:101D20000C946A310E94EB286093AA027093AB0274
:101D30008093AC029093AD026093A6027093A702C9
:101D40008093A8029093A90208950E94EB286093C3
:101D5000AA027093AB028093AC029093AD026093A1
:101D6000A2027093A3028093A4029093A502089507
:101D700085B7806885BF85B7806885BF08950C9456
:101D8000FB1308950C94C10E0C94C10E0C94C40E58
:101D90000C94C10E0C94C80E0C94C10E0E94B80E87
:101DA00088EC91E10E94A3270E94CC0E0C94CA0EED
:101DB0000E94C20E0C94C10E0E94CB110E9411040D
:101DC0000C942C220E94D6280E947E110E9413148B
:101DD0000E940A130E94DC0E0E9467220E94652066
:101DE0000E945D1E0E94D0230E9427140C94C60EF0
:101DF0008F929F92AF92BF92CF92DF92EF92FF921B
:101E00000F931F93CF93DF93CDB7DEB72A970FB60B
:101E1000F894DEBF0FBECDBF0E946913982E8111CA
:101E20000E94920E88E9A82E82E0B82E00E010E011
:101E3000802E802F0E94EF11D82EF501C1905F01F6
:101E4000C826B1F40F5F1F4F0A30110589F78FEFD5
:101E500089838A831B820E94DF288160782F9D837B
:101E60008C8349815A816B818D810E942D042FC002
:101E70008091AE0281FD0E94F511E12CFF24F394C4
:101E80008C2D8F21F1F00E94BF0E882399F0EE82F5
:101E90008F82DF2081E009F480E088870E94DF28BC
:101EA0008160782F9A8789874E815F8168858A85CE
:101EB0000E942D04F801E856FD4F8081F826F0823B
:101EC00006C0E394FF0CF6E0EF12DACFBBCF81E05F
:101ED000911001C080E02A960FB6F894DEBF0FBEC5
:101EE000CDBFDF91CF911F910F91FF90EF90DF90C9
:101EF000CF90BF90AF909F908F9008950E94F80E62
:101F00000E94FB130E94951E0E942B220E943924DE
:101F100081110E94A50E0C942204CF93DF930E949E
:101F2000A710EC01811522E59207E8F5811531E54E
:101F3000930708F0B6C0883E910528F5803E9105CC
:101F400008F0E9C0883A910570F4853A910508F0E7
:101F50007AC08130910509F473C008F4D9C00497A0
:101F600008F0D9C0D5C08F3B910508F0D1C0C85A40
:101F7000D0E0CC0FDD1FC655DE4F0990D881C02DB3
:101F8000CE019464C9C0811540E5940708F069C08A
:101F9000811550E4950708F060C09A9581159F411E
:101FA00008F4B9C0B5C0811536E5930728F5811549
:101FB00045E5940708F092C0811554E5950708F0AF
:101FC00087C0AC0143705527282F26952695C1154B
:101FD000D34508F06CC081E090E002C0880F991FE3
:101FE0004A95E2F740E2249F90011124EC01C22BB4
:101FF000D32BCE019C6890C081152AE5920780F40E
:10200000811539E5930708F072C0811548E59407FA
:1020100008F47EC0D82FCC27CE01806F906A7CC098
:1020200090568115904208F073C08D2F8F710E94D9
:102030003B11DD27D0628F71AE01582BCA016CC0F5
:1020400081E090E069C0C55AD0E0C852DE4F888177
:10205000C82FD0E0CE0190645FC0DF70CE01906ADF
:102060005BC074E0969587957A95E1F7282F2370E9
:102070003C2F337081E090E002C0880F991F3A95A1
:10208000E2F79C68AC01522B9A019C2F9F709695A9
:10209000969550E2959FE0011124C9018C2B9D2B50
:1020A0003BC0D82FCC27CE01816F906A35C081E02C
:1020B00090E002C0880F991F4A95E2F750E2259FF1
:1020C00090011124EC01C22BD32BCE019A6824C0BD
:1020D000D82FCC27CE01846F906A1EC00E943B117E
:1020E0008F7190E0D82FCC27CE01906215C08F70F1
:1020F0000E943B1194E0D695C7959A95E1F7CF7071
:10210000D0E0DC2FCC27D0699E01282BC90104C068
:1021100080E090E001C0CE01DF91CF9108952CE3E3
:10212000829FC0011124FC0126E0729FE00DF11D89
:102130001124E60FF11DEE0FFF1FE852FF4F8591AE
:10214000949108950E948F100E948D0F08958238F7
:10215000910569F1B0F48133910509F46DC048F43B
:102160008932910509F463C08A32910509F469C086
:1021700008958533910509F455C089339105B9F067
:102180000895833E910569F138F4803E9105B1F0E0
:10219000823E910509F10895863E9105A9F1873E99
:1021A0009105B9F1843E910509F064C023C02091E6
:1021B000590320FD4FC021FD4DC008958091590362
:1021C00080FD44C080915A0380FF44C08091590330
:1021D00084FD42C083EE4DC08091590382FF38C018
:1021E000F5CF8091590382FD33C080915A0380FD61
:1021F00031C0ECCF80915A0381FF32C080915903E6
:1022000084FD2AC087EE35C08091590383FF26C024
:10221000F5CF8091590383FD21C080915A0381FD40
:102220001FC0ECCF8091590385FD1CC01DC080915B
:10223000590385FD19C016C08091590386FD16C04B
:1022400017C08091590386FD13C010C089E311C0E7
:1022500082EE0FC080EE0DC080E00BC086EE09C09C
:1022600084EE07C089E205C085E303C08AE201C0AD
:1022700081E390E008959091590392FF0DC0282FBB
:102280002871283019F4877F846006C0282F2471B4
:10229000243011F48B7F886093FF0DC0282F2871A4
:1022A000283119F4877E846106C0282F24712431D7
:1022B00011F48B7E886120915A0320FF0DC0382FC6
:1022C0003871383019F4877F816006C0382F31713A
:1022D000313011F48E7F886021FF0DC0282F2871C6
:1022E000283119F4877E816106C0282F21712131A0
:1022F00011F48E7E886194FD877E089510925503B7
:102300001092560310925703109258030895CF92DB
:10231000DF92EF92FF926B017C010E94FB1381110F
:102320000EC00E94EB28C61AD70AE80AF90AC09222
:102330005503D0925603E0925703F0925803FF9052
:10234000EF90DF90CF9008950F931F930E94FB139F
:10235000882321F01F910F910C94EB280E94EB2809
:102360000091550310915603209157033091580363
:10237000600F711F821F931F1F910F9108950E947C
:10238000FB1381110C94DF280E94A411CB01089546
:1023900080E0089508950E94E30D811102C00E941B
:1023A0008B0E0E94EE0D8093AE020E94F60D90936C
:1023B0005A03809359030E94CA110E94F20D682F9C
:1023C00070E080E090E00E94030860914402709108
:1023D000450280914602909147020C943B08E82FF9
:1023E000F0E0EA59FC4F80810895089580EA8A95CB
:1023F000F1F7089500C008950C94F61108950C9417
:10240000FE110C94FF110C94FE110C9403120C9409
:10241000FE11FF920F931F93CF93DF9300D000D054
:102420001F92CDB7DEB70E94FB1360917003882323
:10243000E9F185E0F82E8E010F5F1F4FF8018F2D17
:1024400011928A95E9F7862F90E0B8018A599C4F3E
:102450000E943514882389F080915B0390E045E069
:1024600050E0B8018A599C4F0E94403121E02093EE
:10247000AF02892B61F410E016C08091AF0288236F
:10248000D1F3F8011192FA94E9F71092AF02A091FA
:102490005B03B0E0AA59BC4F85E0F80101900D92B2
:1024A0008A95E1F711E00E948B030DC070E06A5934
:1024B0007C4F80915B0390E08A599C4F0E94BF142F
:1024C0000E94071210E0812F0F900F900F900F9035
:1024D0000F90DF91CF911F910F91FF900895F89485
:1024E000E82FE295EF70F0E031A1282F2F7081E006
:1024F00090E001C0880F2A95EAF7982F90959323D2
:1025000091A392A1892B82A3789408950F931F938E
:10251000CF93DF93CEE0D1E089918F3F11F00E94FD
:102520006F1281E0C331D807B9F7C8E0D1E00EE0FF
:1025300011E089918F3F11F00E946F120C171D0757
:10254000C1F7DF91CF911F910F910895CF92DF9244
:10255000EF92FF920F931F93CF93DF938C01C62FBF
:10256000D0E0CE01825F9E4F7C01FC0190819F3FB5
:1025700009F447C0D62EF894E92FE295EF70F0E009
:1025800081A19F7021E030E001C0220F9A95EAF707
:10259000822B81A382A12095282322A378940E94D4
:1025A000FA11E8E0F1E04EE051E031E0C12C219178
:1025B0002F3F89F0A22FA295AF70B0E090968C913A
:1025C00090E02F7002C0959587952A95E2F780FDDF
:1025D00002C0832F01C080E0C82A330F4E175F0767
:1025E00031F7F70180818F3F11F00E946F1261E097
:1025F000C11001C060E08D2D0E94FC11C00FD11FE1
:10260000C882DF91CF911F910F91FF90EF90DF90E3
:10261000CF900895CF93DF93CDB7DEB72B970FB64A
:10262000F894DEBF0FBECDBF80911301811127C08A
:1026300085E0EEE6F1E0DE01179601900D928A95B5
:10264000E1F7FE013796AEE0B1E0CE010C969F01B6
:1026500041914D93E817F907D9F786E0E3E7F1E0F8
:10266000DE01119601900D928A95E1F7FE013196F7
:10267000A8E0B1E081918D93E217F307D9F780913B
:102680001301811102C095E001C090E090937003A6
:1026900085E0891B80935B030E9486128AE0E6E650
:1026A000F3E0DF01982F1D929A95E9F7ECE5F3E04E
:1026B000DF011D928A95E9F785E00E94BD132B96F4
:1026C0000FB6F894DEBF0FBECDBFDF91CF910C9453
:1026D0008903EF92FF920F931F93CF93DF93CDB7B0
:1026E000DEB72A970FB6F894DEBF0FBECDBF8E01BE
:1026F0000F5F1F4F8AE0F80111928A95E9F7F12CDC
:102700006F2DC8010E94A612F394F5E0FF12F8CFD6
:102710004AE050E0B8018CE593E00E9440317C0132
:1027200021E0892B09F420E0E114F10441F08AE072
:10273000F801ACE5B3E001900D928A95E1F7609164
:10274000700370E06A597C4F45E08CE593E00E948D
:10275000BE13EF2819F40E94091202C081E090E034
:102760002A960FB6F894DEBF0FBECDBFDF91CF9192
:102770001F910F91FF90EF9008950895FF920F938E
:102780001F93CF93DF938C01F62ED72FC42F2223D4
:1027900049F081E08093B2020E94DF289093B10259
:1027A0008093B0028091B2028823C1F08091B00280
:1027B0009091B1020E94F728059780F0EF2DFD2F30
:1027C000D8014C2F50E0CD01801B910B8417950749
:1027D0001CF48D918193F7CF1092B202DF91CF91CB
:1027E0001F910F91FF90089555985D9889B185FBD1
:1027F000882780F908958091B50281110DC00E944B
:102800001F30811102C082E001C081E08093B502D7
:10281000823011F40E941A3081E09091B50291301B
:1028200009F080E008950E94F413809313018091D1
:10283000130166E0882311F080E001C086E00E9469
:10284000FE170E94FB1381110C946D1408950E94D1
:10285000FB13811102C00C946F14089581E09091D4
:10286000B6029A3008F080E008950F931F93CF933B
:10287000DF93EC018B018091B6028A3038F4B80105
:10288000CE010E94BD1481111DC00AC08091B30207
:102890009091B4020E94F728843F914080F715C0C0
:1028A0008091B6028F3F19F08F5F8093B6028091BE
:1028B000B6028A3060F00E94DF289093B4028093C1
:1028C000B30203C01092B60202C080E001C081E0F2
:1028D000DF91CF911F910F9108950C943C260C9499
:1028E0003F26DF92EF92FF920F931F93CF93DF93D8
:1028F0007901C82F880FDD0B41155105A9F0FE01A4
:1029000093E0EE0FFF1F9A95E1F7EC5EFE4F818199
:10291000928189549D4F208130E04217530708F47B
:102920009A01A9010E944D31CE010E942827D82E7C
:102930008823D1F001151105B9F083E0CC0FDD1F1C
:102940008A95E1F7FE01EC5EFE4F438150E00417EB
:10295000150708F4A801CC5EDE4F6C817D816954B7
:102960007D4FC7010E944D318D2DDF91CF911F9179
:102970000F91FF90EF90DF9008950C94B1160C9496
:10298000E516AF92BF92CF92DF92EF92FF920F9334
:102990001F93CF93DF93C82F7B01D42F6901580178
:1029A000FB0160817181828193810E9406296436D6
:1029B00071058105910510F4DD23A1F000E010E020
:1029C00020E030E0A501B6018C2F0E947114C82FC1
:1029D000882349F00E94EB28F7016083718382838A
:1029E000938301C0C1E08C2FDF91CF911F910F9194
:1029F000FF90EF90DF90CF90BF90AF9008950F932E
:102A00001F93CF93DF93CDB7DEB728970FB6F89417
:102A1000DEBF0FBECDBFCE0101960E94501D41E02A
:102A20008885811101C040E008E010E09E012F5F21
:102A30003F4F65EE72E086E00E94C114182F8111AD
:102A40000E944D1D812F28960FB6F894DEBF0FBE51
:102A5000CDBFDF91CF911F910F9108950F931F93D9
:102A6000CF93DF931F92CDB7DEB70E944A20882311
:102A700019F00E945F2001C080E08983E091DB01B2
:102A8000F091DC0141E09485981301C040E001E041
:102A900010E09E012F5F3F4F61EE72E085E00E94E3
:102AA000C1140F90DF91CF911F910F9108950F9353
:102AB0001F93CF93DF9300D000D0CDB7DEB76091E6
:102AC000DD027091DE028091DF029091E0020E94AF
:102AD0000629643671058105910528F10E94A4112B
:102AE000DC01CB010296A11DB11D89839A83AB83C2
:102AF000BC8300E010E020E030E044E050E0BE01A4
:102B00006F5F7F4F84E00E947114182F882361F05B
:102B10000E94EB286093DD027093DE028093DF0257
:102B20009093E00201C011E0812F0F900F900F9061
:102B30000F90DF91CF911F910F9108957F928F9207
:102B40009F92AF92BF92CF92DF92EF92FF920F933C
:102B50001F93CF93DF931F92CDB7DEB7762E4A0136
:102B60005901680101E010E09E012F5F3F4F40E0F6
:102B700050E060E070E00E947114182F882379F112
:102B8000F40160817181828193810E9406296436FB
:102B9000710581059105E0F08701950140E050E065
:102BA00060E070E0872D0E947114182FB701C601F4
:102BB0000E94682291E02981281390E01923A1F056
:102BC0000E94EB28F40160837183828393830CC09D
:102BD000B701C6010E94682299818913DDCFA70140
:102BE000B601C5010E944D31812F0F90DF91CF9129
:102BF0001F910F91FF90EF90DF90CF90BF90AF901B
:102C00009F908F907F900895EF92FF920F931F9364
:102C1000CF93DF931F92CDB7DEB70091DB01109108
:102C2000DC01095F1F4FEE24E394F12C9E012F5F1E
:102C30003F4F49ED52E063E082E00E949E15182F5D
:102C4000882321F0CE0101960E94AC24812F0F90A1
:102C5000DF91CF911F910F91FF90EF900895CF9248
:102C6000DF92EF92FF920F931F93CF93DF9300D0E9
:102C700000D01F92CDB7DEB76B010091DB01109140
:102C8000DC010F5F1F4F85E0E82EF12C9E012F5FC6
:102C90003F4F45ED52E061E080E00E949E158823A1
:102CA00049F095E0FE013196A0EDB2E001900D9261
:102CB0009A95E1F795E0E0EDF2E0D60101900D92F2
:102CC0009A95E1F70F900F900F900F900F90DF9172
:102CD000CF911F910F91FF90EF90DF90CF900895CB
:102CE000AF92BF92CF92DF92EF92FF920F931F931A
:102CF000CF93DF937C015B016A010E942E14811146
:102D000003C001E010E002C00AE010E0C1E0D0E042
:102D1000F894B501C701F60109957894811115C0A1
:102D200021960C171D0794F0CC9F9001CD9F300D7C
:102D3000300D112480E090E045E34A95F1F7000062
:102D4000019682179307C1F7E3CF81E0DF91CF911E
:102D50001F910F91FF90EF90DF90CF90BF90AF90B9
:102D600008950F931F93CF93DF93EC018B014FE2F4
:102D700056E10E947016882311F144E056E1B80133
:102D8000CE010E9470168823D1F047E555E1B801C5
:102D9000CE010E947016882391F04EE255E1B801F1
:102DA000CE010E947016882351F04FEF54E1B80114
:102DB000CE01DF91CF911F910F910C94701680E09E
:102DC000DF91CF911F910F910895CF92DF92EF92F3
:102DD000FF920F931F93CF93DF931F92CDB7DEB770
:102DE000F8940091DB011091DC01C801019625E007
:102DF000FB01DC0101900D922A95E1F765E070E09E
:102E00000E946822F80180837894F894CE0101969C
:102E10000E94A3248981F801878361E070E0CE01DC
:102E200001960E946822F80186837894F894608560
:102E3000718582859385C090CC02D090CD02E090C0
:102E4000CE02F090CF026C157D058E059F0551F0E6
:102E50006093CC027093CD028093CE029093CF0208
:102E60000E9487117894F894F80184850E94762155
:102E70007894F894F8018489882339F060E0C801D7
:102E80000D960E94281EF801148A78940F90DF9105
:102E9000CF911F910F91FF90EF90DF90CF90089509
:102EA0000E94E02A0E94E20E0C94EC2A0E94F02A72
:102EB0000E947E0F0C940A2B0E947D280E94C72A34
:102EC0000E94CE0E0E9450170E9456170E94D80EE4
:102ED000FBCFEF92FF920F931F93CF93DF938B0162
:102EE000682F11110AC0442329F0E82FF0E0EE52B8
:102EF000FC4F6491762F862F75C0212F30E0E82F8C
:102F0000F0E0442321F0EE52FC4FE491F0E046E083
:102F1000049FC0011124CFEFD0E0BE010E945630C3
:102F20004BEA4603C001479F900D1124800F911D6D
:102F3000800F911D982F990F890FAE01421B530BE3
:102F40004E9FD0014F9FB00D5E9FB00D11249B2F5F
:102F5000189FA0011124452F55278E01041B150B26
:102F60000E9FA0010F9F500D1E9F500D11247E013A
:102F7000E81AF108E29E8001E39E100DF29E100D0A
:102F80001124212F3327C21BD30BCE9F9001CF9F3B
:102F9000300DDE9F300D112462307105A9F048F428
:102FA0006115710569F061307105C9F48B2F752FBA
:102FB0000DC06430710581F058F06630710579F408
:102FC0007E2F8B2F932F0DC0832F7B2F9E2F09C019
:102FD0008E2F7B2F952F05C08E2F732F02C07E2F33
:102FE000852F692FDF91CF911F910F91FF90EF9067
:102FF000089541E00E94691708950895EFE4F1E013
:103000008083618308950E94F9170895CF93DF9319
:10301000762FE901682F842F0E9403187983688333
:103020008A83DF91CF91089580917103282F26958F
:1030300030E02115310519F48170826005C02B3212
:10304000310524F08170846580937103089588E0D0
:1030500090E00C945E31CF92DF92EF92FF926B0181
:103060007C010E941418B701A60188E090E0FF904F
:10307000EF90DF90CF900C947C31E1E7F3E087E1B3
:10308000808311828FEF828380E883831482A2E39E
:10309000B3E012968C911297836012968C936081A4
:1030A0007181828193810C942B188091710380FF30
:1030B00002C08695089580E008959091750393303D
:1030C00018F49F5F90937503882351F0609171030A
:1030D0007091720380917303909174030C942B1878
:1030E000089581E00C945D1890917503992319F06F
:1030F000915090937503882351F060917103709102
:10310000720380917303909174030C942B180895AB
:1031100081E00C94741870E00C943C226091500192
:103120008091710380FF0AC080914F0123E0829F4C
:10313000C00111248A589C4F0C948B188091510126
:1031400090915201891780F7E82FF0E09F01220F3C
:10315000331FE20FF31FEA58FC4F118210821282D4
:103160008F5FF0CF9091710390FF16C09091510145
:1031700020915201921770F4E92FF0E0DF01AA0FBD
:10318000BB1FEA0FFB1FEA58FC4F81836083428319
:103190009F5FF0CF0C948E180895CF93DF9300D0EB
:1031A0001F92CDB7DEB79091710390FF0AC09E01C8
:1031B0002F5F3F4F0E9406184B8169818A810E94D0
:1031C000B2180F900F900F90DF91CF910895CF9389
:1031D000DF93EC01EC81F0E0E353FD4F4491E1E734
:1031E000F3E0628181810E94CD188C818F5F8C8396
:1031F000DF91CF910895CF93DF93EC01E1E7F3E006
:10320000438162818C810E94CD188C818F5F8C8379
:10321000DF91CF9108950F931F93CF93DF9300D049
:103220001F92CDB7DEB78C018091E90281110AC0EF
:103230009E012F5F3F4F4FEF6FEF0E9406188A816C
:103240008093E902F8018481813051F028F08230C6
:1032500061F44091E9020AC08091E90240E007C0B0
:103260006091E90240E080E003C040E080E060E07F
:103270000E94B218F801848190E0019663E070E04A
:103280000E946A3084830F900F900F90DF91CF914E
:103290001F910F910895AF92BF92CF92DF92EF925C
:1032A000FF920F931F93CF93DF9300D01F92CDB760
:1032B000DEB7182FF62E042FE22E9091710390FFA7
:1032C0007EC0E92FE695AE2FB0E0A352BE4F8C91A1
:1032D000809332039E7F923061F49E012F5F3F4FB7
:1032E000812F0E9406184B8169818A810E94B21841
:1032F00043C0823019F4009174033EC0863019F443
:103300001091720339C08930D9F38931A9F5E95197
:103310008E2F8170D82EE695F0E0E353FC4FA590F8
:10332000B490C12CBB2460915301C61618F52C2D06
:1033300030E0A29EC001A39E900DB29E900D11247C
:1033400070E00E945630812FD11002C0860F01C05C
:10335000861B90915101290F311DA901440F551F62
:10336000240F351F2A583C4F402F6F2D0E940618FE
:10337000C394D9CF0E948E1880917203181308C08D
:1033800080917303F81204C080917403081729F028
:103390008091340382608093340310937203F0921F
:1033A000730300937403EE2051F0609171037091E8
:1033B000720380917303909174030E942B180F90F5
:1033C0000F900F90DF91CF911F910F91FF90EF9091
:1033D000DF90CF90BF90AF900895E1E7F3E0918147
:1033E000282F4381628188E0890F0C944B1981E07A
:1033F0000C94ED19E1E7F3E09181282F438162817C
:1034000088EF890F0C944B1981E00C94FA19E1E7CD
:10341000F3E0628121E1620F08F46FEF282F43810E
:1034200081810C944B1981E00C94071AE1E7F3E0D9
:10343000628121E1621B08F460E0282F43818181D1
:103440000C944B1981E00C94161AE1E7F3E04381E8
:1034500021E1420F08F44FEF282F628181810C9403
:103460004B1981E00C94251AE1E7F3E0438121E157
:10347000421B08F440E0282F628181810C944B1993
:1034800081E00C94341A20E00C944B19FF920F93B6
:103490001F93CF93DF93EC01F12C0FEF10E06091BD
:1034A0005301F616F0F4809151012F2D30E0280FD2
:1034B000311DC901880F991F280F391F2A583C4F09
:1034C00070E0C8010E946A30962F8C81409174038D
:1034D00060917303F99E800D11240E940618F394E5
:1034E000DECF0E948E189A818C8190FF02C08F5F80
:1034F00001C081508C83DF91CF911F910F91FF907C
:1035000008958F929F92AF92BF92CF92DF92EF92E7
:10351000FF920F931F93CF93DF93EC018A8180FF7B
:1035200003C0BB24BA9402C0BB24B3948C81811124
:103530000DC081E0B81206C0809153018150809384
:10354000EB0202C01092EB0281E08C83A12C4CE0D4
:10355000942E80915301A81608F044C08091510127
:10356000CA2CD12C8601080F111DC801880F991F84
:10357000080F191F0A581C4FF8011182108212827D
:1035800034E0E32EF12C812C8091EB02880D8D30FC
:103590002CF0692D0E944830892F05C087FF03C099
:1035A00090915301890F082E000C990BC816D9066B
:1035B00091F4809174038E9DA0018F9D500D112474
:1035C000559547955595479598016091730380915E
:1035D00072030E9406188B0CF1E0EF1AF108A1F6B5
:1035E000A394B7CF0E948E188091EB0291E0B9129C
:1035F0000EC0811107C08091530181508093EB026E
:103600001C820FC081508093EB02BC820AC090E004
:1036100001966091530170E00E946A308093EB0242
:103620008C83DF91CF911F910F91FF90EF90DF90EE
:10363000CF90BF90AF909F908F9008951F93CF939E
:10364000DF93EC018C81811109C081E08C831092A1
:10365000EA0292E090934E0180934D0180915101D6
:1036600090915201891770F4E82FF0E09F01220F2A
:10367000331FE20FF31FEA58FC4F118210821282AF
:103680008F5FF0CF10E0609153011617C0F5E12F66
:10369000F0E070E0CF010E946A3020915101820F6A
:1036A0002091EA02022E000C330B90E0E217F307A0
:1036B000CCF020914E01022E000C330B2E173F0749
:1036C0008CF09C01220F331F820F931F9C012A58FC
:1036D0003C4F4091740360917303809172030E9488
:1036E00006180BC0FC01EE0FFF1F8E0F9F1FFC0181
:1036F000EA58FC4F1182108212821F5FC4CF0E94D1
:103700008E1880914D012091EA02280F2093EA0241
:1037100090914E01980F90934E0119165CF4022E71
:10372000000C330B4091530150E0415051092417D4
:10373000350734F0819580934D01813009F41C8266
:10374000DF91CF911F9108958F929F92AF92BF9278
:10375000CF92DF92EF92FF920F931F93CF93DF935D
:103760008C01FC014481C42FD0E09E01DE010E9447
:10377000AE309B01AC010E94C4306B017C01E0E2E1
:10378000F0E0EC1BFD0BA5E5B0E09B01AC010E9455
:10379000C4304B015C019F01DF010E94A6309B01F8
:1037A000AC010E94CF309B01AC012C0D3D1D4E1D84
:1037B0005F1DC501B4010E947E30C22FD22F2A3274
:1037C00028F4F3E02F9F900111240DC025E530E08F
:1037D0002C1B3109C901880F991F280F391F37FF8A
:1037E00002C02F5F3F4F35952795C22FC095F12C12
:1037F00085E5E82EED1A80915301F816C8F4F1FC26
:1038000002C08E2D01C08D2F909151012F2D30E0DF
:10381000290F311DA901440F551F240F351F2A58A8
:103820003C4F4C2F609173030E940618F394E3CF32
:103830000E948E18F8018481811102C091E003C0BA
:10384000803219F49FEF90934C0190914C01890FB5
:10385000F8018483DF91CF911F910F91FF90EF903A
:10386000DF90CF90BF90AF909F908F9008950F936F
:103870001F93CF93DF93EC0100E010E080915301A0
:10388000282F30E00217130724F590915101980179
:10389000290F311DA901440F551F240F351F2A5828
:1038A0003C4F869590E04C81081719071CF444237F
:1038B00031F002C0411103C04091740301C040E0E7
:1038C00060917303809172030E9406180F5F1F4F6F
:1038D000D5CF0E948E188C8190E001968170992737
:1038E0008C83DF91CF911F910F9108957F928F92DA
:1038F0009F92AF92BF92CF92DF92EF92FF920F937F
:103900001F93CF93DF93FC018280748081E08483D6
:10391000EDECF2E09490ECE4F3E0E491A12CF5E01E
:10392000BF2ECC24CA94D12CE9190E2F10E080911F
:103930005301A81608F0A2C0EA2CF12C22E02815A9
:1039400068F0BE9CF001BF9CF00D1124E151FD4FC9
:1039500080917203808380917303818371100AC008
:10396000BE9CF001BF9CF00D1124E151FD4F13826C
:1039700012826AC0BE9CE001BF9CD00D1124C151CF
:10398000DD4F8B818823F9F081508B832FEF829F4D
:10399000C00111246C8170E00E945630FB01FF27AA
:1039A000E353FD4F8491E82FE9192FEFE29FC00107
:1039B0001124B8010E94563080917403689FB001B1
:1039C00011247A8341C00E942331209174032695EB
:1039D000215830E0A901440F551F322F2227240F10
:1039E000351F232F33278217930774F582E088153C
:1039F00088F40E942331B6010E946A3088830E94B5
:103A00002331209173032695622F70E00E946A3063
:103A1000280F2983BE9CF001BF9CF00D1124E151B9
:103A2000FD4F128280917403843120F0893C18F09C
:103A300088EC01C084E1BE9CF001BF9CF00D112414
:103A4000E151FD4F84838383809151019701280FB9
:103A5000311DC901880F991F280F391F2A583C4F63
:103A6000BE9CF001BF9CF00D1124E151FD4F42813D
:103A7000618180810E940618A39459CFDF91CF9174
:103A80001F910F91FF90EF90DF90CF90BF90AF907C
:103A90009F908F907F900C948E181092340308950D
:103AA00025E0E1E7F3E0DC0101900D922A95E1F7D2
:103AB000209132033091330340913403FC0125837C
:103AC00036834783089560917103669570E04BE0FB
:103AD00050E084E591E00E943331892B19F481E0B4
:103AE000809333030E94BF1190932C0380932B0388
:103AF000809134038460809334030895E2E3F3E01B
:103B0000118282818460828308959091710390FF75
:103B10003AC09170811102C0926006C08B3210F0E1
:103B2000946502C0880F982B9093710380913403A1
:103B3000816080933403662351F06091710370912A
:103B4000720380917303909174030E942B1860910B
:103B50007103669570E04BE050E084E591E00E94CF
:103B60003331892B19F00E947E1D02C00E94631D13
:103B700081E080932E0340917403609173038091E0
:103B800072030C94431A0895682F909171039695CF
:103B900081E0890F8B3208F081E00C94851D81E073
:103BA0000C94C41D682F9091710396958FEF890F27
:103BB00009F48AE20C94851D81E00C94D21D61E029
:103BC0000C94851DE1E7F3E0808181608083869518
:103BD0000C94DF1D60E00C94851DE1E7F3E080812B
:103BE0008E7F808360817181828193810E942B18F6
:103BF0000E947E1DE2E3F3E08281816082832FEFE9
:103C000080E792E0215080409040E1F700C0000042
:103C10000C948E188091710380FD0C94ED1D0C9412
:103C2000E21DE1E7F3E080818E7F80830E947E1DAC
:103C3000E2E3F3E08281816082832FEF80E792E00C
:103C4000215080409040E1F700C000000C948E1895
:103C50001F93CF93DF93EC01162F8F8180FF0FC04E
:103C6000888180FF0AC08091710381608093710315
:103C7000888186950E94851D02C00E94111E8F8139
:103C800081FF06C0212F4B816A8189810E944B19D7
:103C90008F8182FF08C08E81882319F00E94631DE6
:103CA00002C00E947E1D8F8183FF03C081E080934C
:103CB0002E03DF91CF911F910895809131038111DF
:103CC00033C00E94E30D811104C00E948B0E0E943C
:103CD0003D180E94271860937103709372038093BC
:103CE000730390937403809134038360809334034F
:103CF0006E7F61F40E943D180E9427186093710343
:103D00007093720380937303909374030E9414184A
:103D10000E947E1D8091710380FF03C086950E94E2
:103D2000EA1D81E0809331030895EF92FF920F9393
:103D30001F93CF93DF9380913303882309F4BBC093
:103D400080913203E0917103E695E81BE0932D0327
:103D5000823049F4F0E0E753FD4FE491CE2FD0E0FC
:103D600007EE18E159C0863049F4F0E0EA53FD4F00
:103D7000E491CE2FD0E00BEF18E14EC0893051F422
:103D8000E695F0E0ED53FD4FE491CE2FD0E006E450
:103D90001AE142C08F3051F4E695F0E0E054FD4F57
:103DA000E491CE2FD0E001E81AE136C0853149F424
:103DB000F0E0E354FD4FE491CE2FD0E00EE11BE1A3
:103DC0002BC08831D9F0833239F4EBEBF2E0C591A6
:103DD000D4910BE019E120C08432A9F08532C1F4FE
:103DE0008E2F63E00E943C30E92FF0E0E854FD4F55
:103DF000E491CE2FD0E006E71CE10EC0C8E2D0E08F
:103E000004EA1BE109C0C4EFD1E007E31CE104C0F0
:103E1000C0EDD7E00DEF17E180912E03882361F00C
:103E200010922E030E94BF1190932C0380932B03BA
:103E30001092300310922F030E94BF11E0912B03C8
:103E4000F0912C039C012E1B3F0B2F3F3F4798F511
:103E50002091EE022223B1F01092EE022091EC02AA
:103E60003091ED02821B930B8F3F9F4758F4205DEA
:103E70003A483093ED022093EC028091340388603D
:103E800080933403E0902F03F0903003EC0FFD1F7C
:103E9000F0932C03E0932B038BE293E0F801099558
:103EA00080912F0390913003892B29F4EF2819F08A
:103EB00081E08093EE02DF91CF911F910F91FF90EF
:103EC000EF900895882311F0FA0101C0FB010994D5
:103ED000CF93DF93C82FD62F0E9455188C1740F030
:103EE0000E9455188D1720F4DF91CF910C94CF1DAF
:103EF0008C2FDF91CF910C94DF1D1F93CF93DF9315
:103F0000FB0112811111C1C0EC010E94000D8272EF
:103F1000CD3CFCE5DF0709F49AC008F043C0C73C7C
:103F2000ECE5DE0709F47FC0D8F4C43C9CE5D90772
:103F300009F46DC038F4C33CDC4509F0A5C00E940B
:103F40000A1EA3C0C53C9CE5D90709F465C0C63C60
:103F5000DC4509F099C044E05AE167EF79E160C0BF
:103F6000CA3CFCE5DF0709F468C070F4C83CECE526
:103F7000DE0709F45DC0C93CDC4509F085C043E1BA
:103F80005AE162E27AE14CC0CB3C9CE5D90709F4E6
:103F900059C0CC3CDC4509F077C048E858E161E7FE
:103FA00078E13EC0C23DFCE5DF0709F45DC098F44E
:103FB000CF3C9CE5D90709F451C008F44DC0C03D81
:103FC000FCE5DF0709F44DC0C13DDC4509F05CC0EC
:103FD0006EE089E056C0C53D9CE5D90709F44AC0AA
:103FE00058F4C33DFCE5DF0709F441C0C43DDC459E
:103FF00009F04AC088E142C0C63D9CE5D907E9F115
:10400000CE35DD4509F040C06AE285E23AC04CEDAC
:104010005DE16FEC7DE104C04FEC5DE16CED7DE1B5
:104020000E94621F32C047EF59E164E07AE1F8CFA5
:1040300042E25AE163E17AE1F3CF40E45AE161E31D
:104040007AE1EECF41E35AE160E47AE1E9CF41E77A
:1040500058E168E878E1E4CF81E010C065E082E0F3
:1040600010C068E086E00DC064E18FE00AC067E13F
:1040700085E107C062E289E104C083E20E94DF1D9E
:1040800004C00E94681F01C011E0812FDF91CF9111
:104090001F91089580919A038170089586E090E0C1
:1040A0000C945631682F86E090E00C946A31809130
:1040B0009A038470896180939A030C9452208091B2
:1040C0009A0386958695869508950E94E30D811141
:1040D00004C00E948B0E0E9457200E944E208093A5
:1040E0009A03282F26952695269530E0263031050F
:1040F00024F08770886280939A0380919A0380FFEE
:1041000004C086958695869501C080E00C94762142
:1041100020919A03822F869586958695482F50E0A8
:104120004530510554F48F5F982F990F990F990FCF
:10413000822F8770892B80939A0380919A038160E4
:1041400080939A030E94522080919A0386958695C7
:1041500086950C94762180919A03982F9695969542
:104160009695A1F0915E990F990F990F8770892B01
:1041700080939A03887F91E009F490E080919A03FC
:1041800090FB80F980939A030E94522080919A03B9
:104190008695869586950C94762180919A0380FD6C
:1041A00013C0816080939A03813019F489E0809371
:1041B0009A0380919A030E94522080919A038695D7
:1041C000869586950C947621089580919A0380FFB8
:1041D00008C08E7F80939A030E94522080E00C9446
:1041E0007621089580919A0380FD0C94E5200C942B
:1041F000CD2090919A03892F8695869586958F5F1D
:104200008F719770863038F4880F880F880F892B4C
:1042100080939A0302C090939A0380919A03887FB7
:1042200091E009F490E080919A0390FB80F98093EB
:104230009A030E94522080919A03869586958695CE
:104240000C947621863008F085E090919A0397705F
:10425000282F220F220F220F922B90939A03987FE0
:1042600021E009F420E090919A0320FB90F99093CB
:104270009A030C9476210E94222180919A030C9437
:1042800052209C01FB018281882349F12E3BFCE5F1
:104290003F07C9F040F42C3BECE53E0769F02D3BAD
:1042A0003C4561F00895203C9CE5390791F070F0A1
:1042B000213C3C4589F0089585E001C080E00E94E2
:1042C0003B2180E008950E94AB20FBCF0E94882014
:1042D000F8CF0E94F220F5CF0E94F920F2CF81E0C2
:1042E0000895259A2D9808952D9808958F929F925C
:1042F000AF92BF92CF92DF92EF92FF920F931F93F4
:10430000CF93DF93C82F863050F4811109C080917C
:1043100080008F77809380000E94742106C0C5E0E2
:1043200080918000806880938000A0918600B09189
:1043300087002C2F30E00E94AE3025E030E040E0D6
:1043400050E00E947E300027122F232F342F012FA0
:10435000122F232F332780918600909187006CE0E5
:1043600070E00E9456306017710730F0C80169E0B4
:1043700070E00E9456305EC0809186009091870068
:10438000E0908600F0908700E0918600F091870031
:10439000C6E0D0E0BE010E945630060F171F211D57
:1043A000311D4801590185E0880C991CAA1CBB1CD1
:1043B0008A95D1F7C701BE010E9456306F01E12CEA
:1043C000F12CA7019601260F371F411D511DC50174
:1043D000B4010E947E3069017A01E0918600F0917B
:1043E0008700CA01B9010E942C309B01AC01DF019A
:1043F0000E94C4309B01AC01C701B6010E942C3061
:10440000DC01CB012FE0B695A795979587952A9566
:10441000D1F7009186001091870020E030E0081766
:1044200019072A073B0728F46091860070918700DE
:10443000CB01BC017093890060938800DF91CF911C
:104440001F910F91FF90EF90DF90CF90BF90AF90B2
:104450009F908F90089508950E94712182E8809323
:10446000800089E1809381008FEF9FEF9093870018
:10447000809386000C946520569A2BB12F7B3BB11C
:1044800030644FB7F894FC01CB01880F991F680F77
:10449000791F6E0F7F1FE617F70789F0819198E06B
:1044A0003BB9000000C087FF2BB9880F000000C097
:1044B00000C000C02BB900C09A9591F7ECCF4FBF58
:1044C0008FE594E00197F1F700C00000089508958A
:1044D000FC01680F791F8FEF91E3E617F70771F082
:1044E0002191822728E030E087FF03C0880F8927C9
:1044F00001C0880F21503109B9F7EFCF0895CF934C
:10450000DF93EC01FB018281882309F43CC1C430B4
:10451000FDE5DF0760F4CB3F9CE5D90788F49E01F9
:1045200022503C452431310508F02EC109C0C23665
:10453000EDE5DE0729F0C63AFDE5DF0709F024C105
:104540000E94F60D90935A0380935903C1318CE574
:10455000D80709F4C6C008F042C0C930ECE5DE0750
:1045600009F49BC000F5C5308CE5D80709F485C077
:1045700078F4C330ECE5DE0709F478C008F07AC0BF
:10458000C230DC4509F0F5C0809159038160EFC06D
:10459000C7309CE5D90709F478C008F07AC080914B
:1045A00059038061E4C0CD30FCE5DF0709F487C022
:1045B00058F4CB309CE5D90709F479C008F07BC0EA
:1045C0008091590388606FC0CF30FCE5DF0709F4A4
:1045D00080C008F082C080915903877FC8C0CE3F59
:1045E0009CE5D90709F471C000F5C531FCE5DF078A
:1045F00009F485C068F4C3319CE5D90709F475C096
:1046000008F095C00E94AB07809159038F77AFC027
:10461000CC3FFCE5DF07A9F108F054C0CB3FDC45F7
:1046200009F0A7C080915A0340C0C230EDE5DE0713
:1046300009F489C058F4C1158DE5D80709F45AC0AA
:1046400008F069C080915A0382602FC0C236EDE540
:10465000DE0709F47CC0C63AFDE5DF0709F481C036
:10466000C330DD4509F085C080E06EC080915903FC
:1046700082607DC08091590316C080915903886083
:1046800076C080915A0382604FC080915903806246
:104690006EC08091590380646AC00E94AB0780910C
:1046A0005903806864C0846062C081603DC08091AD
:1046B00059038E7F5CC0809159038D7F58C08091D3
:1046C000590316C080915A0318C080915A038D7FF8
:1046D0002BC0809159038F7E4AC0809159038F7DF2
:1046E00046C0809159038F7B42C080915903877FD8
:1046F0008B7F3DC080915A038D7F8E7F15C0809146
:10470000590382FB222720F991E0922790FB82F93E
:1047100090FB83F92CC080915A03982F909591704B
:104720008E7F892B90FB81F980935A0322C00E94CF
:10473000AB078091590387FB222720F991E092274C
:1047400090FB87F914C081E00E948D0E12C0809109
:10475000590384FB222720F991E0922790FB84F9EA
:1047600006C080915903982F909590FB80F9809313
:1047700059038091590390915A030E94070E0E9499
:10478000AB0780E001C081E0DF91CF9108958FE811
:1047900091E00197F1F700C00000089581E00895CD
:1047A00080911301882309F44FC080916001E82FA4
:1047B000E295EF70F0E041A1282F2F7081E090E0AA
:1047C000BC0102C0660F771F2A95E2F79B01362FC6
:1047D0003095342331A332A1232B22A320915F01F2
:1047E000E22FE295EF70F0E031A12F7001C0880F49
:1047F0002A95EAF7982F9095932391A392A1892B5C
:1048000082A30E94C72320916001E22FE295EF70FE
:10481000F0E080A190E02F7002C0959587952A95D1
:10482000E2F7817090915F01E92FE295EF70F0E07F
:1048300020A130E09F7002C0359527959A95E2F748
:1048400020FD09C090E008C087EF8093600186EFEB
:1048500080935F01AACF92E0892B80933A039091D5
:10486000130181E0982790933603891B80933503C9
:104870000895CF93E0913A035E2F550F550F209185
:104880006001E22FE295EF70F0E080A190E02F70E0
:1048900002C0959587952A95E2F7817099274091F6
:1048A0005F01E42FE295EF70F0E020A130E04F705F
:1048B00002C0359527954A95E2F7F901E170FF2787
:1048C00020FF02C0E2E0F0E0E82BF92BE52BE093BB
:1048D0003A03C0913603EF70F0E0E85FFD4F90813E
:1048E00080913903890F8093390384306CF0EC2F69
:1048F000F0E0E95CFC4F80818F5F808360E08C2F6B
:104900000E941A0321E001C020E0809139038D3F0D
:1049100064F4EC2FF0E0E95CFC4F808181508083EF
:1049200061E08C2F0E941A0321E080913903082E48
:10493000000C990B64E070E00E946A3080933903A8
:10494000822FCF910895E0913603F0E0E95CFC4FAF
:104950002081FC0120830895FF920F931F93CF9332
:10496000DF93D09135030D2F10E0095C1C4FFC0143
:10497000C081F8018081C81BFC2E80E01F145CF40C
:10498000FA94F80180818F5F808360E08D2F0E9410
:104990001A0381E0F3CF9C2FC7FD90E0C91BCC2305
:1049A00059F0CF5FF80180818150808361E08D2FC5
:1049B0000E941A0381E0F3CF882339F0DF91CF9171
:1049C0001F910F91FF900C94A50EDF91CF911F9135
:1049D0000F91FF900895CF93DF9386319C4541F569
:1049E000EB010E94000D982F8A81209106013091E1
:1049F0000701882379F09A7A81E009F480E08093B6
:104A00003B03911102C069E201C065E3C9010E9444
:104A100039280AC080913B03811102C069E201C0BC
:104A200065E3C9010E943B280E94420D80E001C05D
:104A300081E0DF91CF9108950F931F93CF93DF9380
:104A4000C42FD22FFC0182818823C9F040933E03FA
:104A50000E94DF2890933D0380933C0380E28C0FFB
:104A6000883008F057C0C77081E001C0880FCA9530
:104A7000EAF7DF91CF911F910F910C941705809168
:104A80003E03481330C080913C0390913D030E9447
:104A9000F728883C910538F510E21D0FCD17B9F0C5
:104AA00080E28C0F883040F4C77081E001C0880F2D
:104AB000CA95EAF70E941E05183028F581E09D2F5F
:104AC000977001C0880F9A95EAF70E941705802F0A
:104AD0000E940E051830F0F4D77081E001C0880FF5
:104AE000DA95EAF70AC080E28C0F883098F4C77034
:104AF00081E001C0880FCA95EAF7DF91CF911F913D
:104B00000F910C941E05802FDF91CF911F910F9173
:104B10000C940E05DF91CF911F910F9108950F9383
:104B20009C01CB01243F4CE5340731F188F4293D49
:104B3000FCE53F07D9F02A3D4CE5340779F1283DE3
:104B40003C45A9F506E221EE41EE68ED7CE52BC07F
:104B5000263FFCE53F07E1F0A8F0273F3C4539F54B
:104B600007E225EE46EE67EF7CE51DC007E225EE85
:104B700045EE69ED7CE517C006E221EE40EE64EFFC
:104B80007CE511C007E225EE44EE65EF7CE50BC045
:104B900006E221EE42EE66EF7CE505C008E221E088
:104BA00045EE6AED7CE50E941C2580E008C0FC0112
:104BB0008281882319F010923E0301C081E00F9199
:104BC00008958EE1489B02C08150E1F7489BFECFDB
:104BD0000895589880E28A95F1F7589A0895FC0153
:104BE0002AE02A95F1F728E090E080E031E040E10A
:104BF0004A95F1F7880F489B02C08160932700C057
:104C0000000040E14A95F1F7215089F720E12A950B
:104C1000F1F729B100C0000030E13A95F1F72170B9
:104C200092272081920F90830895EF92FF920F9325
:104C30001F93CF93DF931F92CDB7DEB719828C01FC
:104C40007C01E60EF11C0E151F0551F00E94E125B6
:104C5000CE0101960E94EF25F80181938F01F3CFD9
:104C600081E09981911180E00F90DF91CF911F91A8
:104C70000F91FF90EF900895509A589A0895509888
:104C8000589AE89AE9E6F0E080818C7F8083089565
:104C9000615091E001C0990F6A95EAF720E031E098
:104CA000992361F0492F482319F0589A232701C00E
:104CB000589840E24A95F1F79695F2CF222311F0E9
:104CC000589A01C0589880E28A95F1F7589808954B
:104CD000FF920F931F93CF93DF93EC018C01060F8C
:104CE000111DC017D10741F0F9900E94E92568E035
:104CF0008F2D0E944826F5CFDF91CF911F910F9104
:104D0000FF9008951F920F920FB60F9211240F93E8
:104D10001F932F933F934F935F936F937F938F9343
:104D20009F93AF93BF93EF93FF93CF93DF931F9224
:104D3000CDB7DEB719820E94E125CE0101960E940F
:104D4000EF25082F069506950695902F9695957058
:104D5000202F2570920F292F237096959695920FEC
:104D6000877089135FC0898181115CC0083008F0A9
:104D700059C080E18A95F1F7589A509A82E08A9555
:104D8000F1F700C0589888E0089F80011124D801ED
:104D9000AC5EBE4F1696ED91FC9117973097A9F037
:104DA0006091DB017091DC0114962D913C91159777
:104DB000260F371F11968D919C911297680F791FBE
:104DC00013964C9113978C910995F801EC5EFE4F68
:104DD0006381662351F08091DB019091DC01248195
:104DE0003581820F931F0E9468260E94E92580E189
:104DF0008A95F1F758985098589A80E18A95F1F77A
:104E0000F801EC5EFE4F6081662351F08091DB017A
:104E10009091DC0121813281820F931F0E9415261F
:104E20000E94E1250F90DF91CF91FF91EF91BF910B
:104E3000AF919F918F917F916F915F914F913F9132
:104E40002F911F910F910F900FBE0F901F901895EB
:104E50000F931F93CF93DF93883091050CF06DC0B3
:104E6000EC01F894509A589885E08A95F1F7000083
:104E70009C2F969595702C2F2570920F892F8370FB
:104E80009695969523E0CC0FDD1F2A95E1F7980FB4
:104E90008E01092B0E94E92584E08A95F1F700C074
:104EA00068E0802F0E94482680E18A95F1F75098AB
:104EB000589A489902C000C0FCCF87E090E0489B18
:104EC00008C0019721F4509A589A789436C000C0CF
:104ED000F6CFFE01EC5EFE4F6381662381F0809188
:104EE000DB019091DC0124813581820F931F0E94A8
:104EF0001526811104C0509A589A78941FC00E94B8
:104F0000E12580E28A95F1F75898509A80E18A95D8
:104F1000F1F7CC5EDE4F6881662351F08091DB01B2
:104F20009091DC0129813A81820F931F0E946826AB
:104F30000E94E925789481E001C080E0DF91CF9163
:104F40001F910F910895909319028093180208956C
:104F5000909345038093440308950E94FB138111AD
:104F600003C080913F030895E0914403F09145030D
:104F7000309721F00190F081E02D099480E00895B0
:104F8000E0914403F0914503309721F00280F381D2
:104F9000E02D09940895209142033091430328178E
:104FA000390771F09093430380934203E0914403E7
:104FB000F0914503309721F00680F781E02D0994A8
:104FC000089520914003309141032817390771F06B
:104FD0009093410380934003E0914403F091450393
:104FE000309721F00084F185E02D09940895FC01AB
:104FF000329697E080E0915029F021912223D9F355
:105000008F5FF9CF0895662349F0FC013296089628
:105010002191621729F0E817F907D1F780E0089588
:1050200081E008959C01FC0132969FEF80E0419160
:10503000461789F09F3F19F4411101C0982F8F5FE7
:105040008630A9F79F3F39F0F901E90FF11D97FD6F
:10505000FA956283089508959C012A5F3F4FFC01F1
:105060004281461301C01282019682179307B9F755
:1050700008950C9412280C942C28029626E0FC012A
:1050800011922A95E9F7089508950C94442883E035
:10509000809346030C944528811102C081E001C031
:1050A00082E0809346030C9445280C944C2881E0C0
:1050B000809346030C9445280C94572808950C942B
:1050C0005E280C945F280C945E280C945E280C9447
:1050D0005E28CF930E9465280E9469130E9463286E
:1050E000C0E08C2F0E94EF11811104C0CF5FCA3045
:1050F000C1F701C081E0CF91089508951F920F92EA
:105100000FB60F9211248F939F93AF93BF9380910B
:105110004703811113C080919B0390919C03A09140
:105120009D03B0919E034196A11DB11D80939B03E9
:1051300090939C03A0939D03B0939E03BF91AF9166
:105140009F918F910F900FBE0F901F901895809197
:10515000A303843031F10E94FD031092470320E441
:1051600088E190E00FB6F894A895809360000FBE98
:105170002093600083B7817F846083BF83B78160A1
:1051800083BF7894889583B78E7F83BF0FB6F894DA
:10519000A895809160008861809360001092600003
:1051A0000FBE08950E94AB070C94040482E084BDF6
:1051B00093E095BD9AEF97BD80936E0008952FB749
:1051C000F89480919B0390919C03A0919D03B091D2
:1051D0009E032FBF08952FB7F89460919B037091A1
:1051E0009C0380919D0390919E032FBF08959C0185
:1051F0004FB7F89480919B0390919C03A0919D03DD
:10520000B0919E034FBF821B930B0895CF92DF9204
:10521000EF92FF922FB7F894C0909B03D0909C031D
:10522000E0909D03F0909E032FBFA7019601261BDF
:10523000370B480B590BCA01B901FF90EF90DF9073
:10524000CF90089578941F920F920FB60F92112469
:105250008F939F93AF93BF9380919B0390919C03F7
:10526000A0919D03B0919E030196A11DB11D809355
:105270009B0390939C03A0939D03B0939E03BF91C7
:10528000AF919F918F910F900FBE0F901F90189527
:1052900081E08093E00080E28093D8001092C90002
:1052A0008FE19EE40197F1F700C0000087E090EBEA
:1052B000DC018093AC039093AD03A093AE03B09355
:1052C000AF039CE088E10FB6F894A8958093600046
:1052D0000FBE90936000FFCF80915303089508950F
:1052E000CF93DF9321E02093E9002FEF3091E80086
:1052F000215035FD06C035ED3A95F1F7000021113A
:10530000F5CF2091E80025FF14C0EC0140E050E00B
:1053100068E070E00E947C2B8091E8008E7780939B
:10532000E80088E0FE01ABE4B3E001900D928A95BD
:10533000E1F7DF91CF9108958093480370934A037A
:10534000609349038091A303843001F582E0809348
:10535000E9008FEF9091E800815095FD06C095ED32
:105360009A95F1F700008111F5CF8091E80085FF53
:105370000DC040E050E063E070E088E493E00E94FC
:105380007C2B8091E8008E778093E8000895BC0123
:1053900084E00C949C29BC0183E00C949C29089522
:1053A0008091A203811109C00E940D2D0E946A2DD7
:1053B0008091E20084608093E20008951092A2033D
:1053C00008950C945C2860919F0381E0611101C0F5
:1053D00080E00C9447289091A30381E0943009F079
:1053E00080E060919F030C944C2842E061EC81E0E6
:1053F0000E94862C42E261EC82E00E94862C909111
:10540000A30381E0943009F080E060919F030C9445
:1054100055288091A503833009F461C030F48130B0
:1054200071F0823009F49AC008958A3009F486C078
:105430008B3009F46CC0893009F0A8C020C080917D
:10544000A403813A09F0A2C08091E800877F80938D
:10545000E8008091A8039091A903892B21F468E0CA
:105460008BE493E003C060E080E090E070E00E9495
:10547000C72B8091E8008B778093E8000895809196
:10548000A403813209F082C08091A8039091A903FE
:10549000029708F07BC08091E800877F8093E80046
:1054A0008091E80082FD05C08091A3038111F8CFAF
:1054B0006DC02091F3008091F20090E0922B029752
:1054C00031F48091F100813011F0863021F4809127
:1054D000F100809353038091E8008B7753C0809153
:1054E000A403813A09F052C08091A8039091A903C6
:1054F000892B09F04BC08091E800877F8093E800FA
:105500008091E80080FFFCCF80916D0136C08091D2
:10551000A4038132D9F58091A8039091A903892B26
:10552000A9F58091E800877F8093E8000E94BB2C5A
:105530008091A60380936D010C94AB078091A40326
:10554000813221F58091E800877F8093E8000E94F6
:10555000BB2C8091A7038093540308958091A403EA
:10556000813AA1F48091E800877F8093E8008091E0
:10557000E80080FFFCCF809154038093F10080917C
:10558000E8008E778093E8000C94BB2C089584B7D4
:10559000877F84BF0FB6F894A895809160008861DA
:1055A00080936000109260000FBE90E080E80FB61C
:1055B000F89480936100909361000FBE0C9457287B
:1055C0000E940D2D0E946A2DE2EEF0E08081846041
:1055D000808378940C94FF2F81E691E00C94A827A7
:1055E0008091A3038530A9F48091A303853079F4D9
:1055F0000E94A7288091A1038823B1F30E94692803
:10560000882391F30E94662B0E94AB07EDCF0C9488
:10561000D228089508950C940D2B292F3327233079
:105620003105C9F060F42130310581F022303105B7
:1056300009F044C08BE390E020E035E043C0213224
:105640003105E1F02232310549F138C082E190E0C4
:105650002BE335E037C099278130910549F028F0D8
:10566000029761F5E2EDF4E005C0ECEFF4E002C072
:10567000ECEEF4E0849190E09F0124C06115710587
:1056800041F061307105D1F489E090E02BE235E022
:1056900019C089E090E022E135E014C06115710580
:1056A00041F06130710551F482E390E02DE435E082
:1056B00009C080E490E02FE735E004C080E090E08E
:1056C00020E030E0FA0131832083089580E189BD34
:1056D00082E189BD09B400FEFDCF8091D8008F7DA5
:1056E0008093D8008091E00082608093E0008091F8
:1056F000E00081FDFCCF0895CF92DF92EF92FF9200
:105700000F931F93CF93DF93EC018B017A010E94DB
:10571000DA2C811133C0E114F10439F0F7018081F2
:105720009181081B190BC80FD91FC12CD12C011551
:10573000110519F18091E80085FD16C08091E800FF
:105740008E778093E800E114F10449F0F70180813D
:105750009181C80ED91ED182C08285E00FC00E94FF
:10576000DA2C882321F30AC089918093F10001503B
:105770001109FFEFCF1ADF0ADACF80E0DF91CF9176
:105780001F910F91FF90EF90DF90CF90089520919F
:10579000AA033091AB032617370748F0611571054E
:1057A00039F42091E8002E772093E80001C0B90178
:1057B000FC0120E06115710579F18091A303882334
:1057C000F1F18530F1F18091E80083FD3CC08091DA
:1057D000E80082FD2EC08091E80080FFEBCF209191
:1057E000F3008091F20090E0922B6115710551F069
:1057F0008830910538F421912093F10061507109AE
:105800000196F3CF21E0089709F020E08091E800AD
:105810008E778093E800CECF2111CFCF0AC0809140
:10582000A303882361F0853061F08091E80083FD57
:105830000AC08091E80082FFF2CF80E0089582E004
:10584000089583E0089581E008952091AA0330919E
:10585000AB032617370748F06115710539F420911D
:10586000E8002E772093E80001C0B901FC0120E098
:105870006115710591F18091A303882309F440C05B
:10588000853009F43FC08091E80083FD3DC08091E0
:10589000E80082FD2FC08091E80080FFE9CF2091D1
:1058A000F3008091F20090E0922B6115710559F0A0
:1058B0008830910540F424912093F1003196615095
:1058C00071090196F2CF21E0089709F020E080915C
:1058D000E8008E778093E800CBCF2111CCCF0AC0AF
:1058E0008091A303882361F0853061F08091E80006
:1058F00083FD0AC08091E80082FFF2CF80E0089526
:1059000082E0089583E0089581E00895982F97300C
:1059100068F59093E900981739F07091EC002091A8
:10592000ED005091F00003C0242F762F50E021FDB0
:1059300002C09F5FECCF3091EB003E7F3093EB00D5
:105940003091ED003D7F3093ED003091EB00316000
:105950003093EB007093EC002093ED005093F00037
:105960002091EE0027FDE5CF80E008958F708093B1
:10597000E90081E008958091A40387FF11C0809120
:10598000E80082FD05C08091A3038111F8CF11C00A
:105990008091E8008B770BC08091A303882349F0A6
:1059A0008091E80080FFF8CF8091E8008E778093A7
:1059B000E80008952091E4003091E50095E64091DB
:1059C000EC00842F817040FF23C08091E80080FDAF
:1059D0001DC08091A303882399F0853099F08091B0
:1059E000EB0085FD11C04091E4005091E5002417C3
:1059F000350729F3915011F09A01E1CF84E0089521
:105A000082E0089583E0089581E0089580E008959C
:105A10004091E80042FFDDCF08950E947B2D0E9457
:105A2000832DE0EEF0E0808181608083E8EDF0E09E
:105A300080818F77808319BCA7EDB0E08C918E7F39
:105A40008C9380818F7E80831092A20308950F93A0
:105A50001F93CF93DF930E947B2D0E94832DC8ED6F
:105A6000D0E088818F778883888180688883888167
:105A70008F7D888319BC1092A30310929F0310920C
:105A8000A1031092A00300EE10E0F80180818B7F4B
:105A9000808388818160888342E060E080E00E94AA
:105AA000862CE1EEF0E080818E7F8083E2EEF0E0F4
:105AB000808181608083808188608083F80180811B
:105AC0008E7F8083888180618883DF91CF911F9151
:105AD0000F910895E8EDF0E080818F7E8083E7EDFF
